{
	"Factory.sol": {
		"Factory": {
			"abi": [
				{
					"inputs": [
						{
							"internalType": "string",
							"name": "_name",
							"type": "string"
						}
					],
					"name": "deployWithCreate",
					"outputs": [
						{
							"internalType": "address",
							"name": "",
							"type": "address"
						}
					],
					"stateMutability": "payable",
					"type": "function"
				},
				{
					"inputs": [
						{
							"internalType": "string",
							"name": "_name",
							"type": "string"
						},
						{
							"internalType": "bytes32",
							"name": "salt",
							"type": "bytes32"
						}
					],
					"name": "deployWithCreate2",
					"outputs": [
						{
							"internalType": "address",
							"name": "",
							"type": "address"
						}
					],
					"stateMutability": "payable",
					"type": "function"
				},
				{
					"inputs": [
						{
							"internalType": "uint256",
							"name": "",
							"type": "uint256"
						}
					],
					"name": "deployedContracts",
					"outputs": [
						{
							"internalType": "address",
							"name": "",
							"type": "address"
						}
					],
					"stateMutability": "view",
					"type": "function"
				},
				{
					"inputs": [],
					"name": "getDeployedContracts",
					"outputs": [
						{
							"internalType": "address[]",
							"name": "",
							"type": "address[]"
						}
					],
					"stateMutability": "view",
					"type": "function"
				}
			],
			"devdoc": {
				"kind": "dev",
				"methods": {},
				"version": 1
			},
			"evm": {
				"assembly": "    /* \"Factory.sol\":94:845  contract Factory {... */\n  mstore(0x40, 0x80)\n  callvalue\n  dup1\n  iszero\n  tag_1\n  jumpi\n  revert(0x00, 0x00)\ntag_1:\n  pop\n  dataSize(sub_0)\n  dup1\n  dataOffset(sub_0)\n  0x00\n  codecopy\n  0x00\n  return\nstop\n\nsub_0: assembly {\n        /* \"Factory.sol\":94:845  contract Factory {... */\n      mstore(0x40, 0x80)\n      jumpi(tag_1, lt(calldatasize, 0x04))\n      shr(0xe0, calldataload(0x00))\n      dup1\n      0x1c385d57\n      eq\n      tag_2\n      jumpi\n      dup1\n      0x9ad1ee10\n      eq\n      tag_3\n      jumpi\n      dup1\n      0xaa9a068f\n      eq\n      tag_4\n      jumpi\n      dup1\n      0xc9d47df4\n      eq\n      tag_5\n      jumpi\n    tag_1:\n      revert(0x00, 0x00)\n        /* \"Factory.sol\":165:425  function deployWithCreate(string memory _name) public payable returns (address) {... */\n    tag_2:\n      tag_6\n      0x04\n      dup1\n      calldatasize\n      sub\n      dup2\n      add\n      swap1\n      tag_7\n      swap2\n      swap1\n      tag_8\n      jump\t// in\n    tag_7:\n      tag_9\n      jump\t// in\n    tag_6:\n      mload(0x40)\n      tag_10\n      swap2\n      swap1\n      tag_11\n      jump\t// in\n    tag_10:\n      mload(0x40)\n      dup1\n      swap2\n      sub\n      swap1\n      return\n        /* \"Factory.sol\":118:152  address[] public deployedContracts */\n    tag_3:\n      callvalue\n      dup1\n      iszero\n      tag_12\n      jumpi\n      revert(0x00, 0x00)\n    tag_12:\n      pop\n      tag_13\n      0x04\n      dup1\n      calldatasize\n      sub\n      dup2\n      add\n      swap1\n      tag_14\n      swap2\n      swap1\n      tag_15\n      jump\t// in\n    tag_14:\n      tag_16\n      jump\t// in\n    tag_13:\n      mload(0x40)\n      tag_17\n      swap2\n      swap1\n      tag_11\n      jump\t// in\n    tag_17:\n      mload(0x40)\n      dup1\n      swap2\n      sub\n      swap1\n      return\n        /* \"Factory.sol\":728:842  function getDeployedContracts() public view returns (address[] memory) {... */\n    tag_4:\n      callvalue\n      dup1\n      iszero\n      tag_18\n      jumpi\n      revert(0x00, 0x00)\n    tag_18:\n      pop\n      tag_19\n      tag_20\n      jump\t// in\n    tag_19:\n      mload(0x40)\n      tag_21\n      swap2\n      swap1\n      tag_22\n      jump\t// in\n    tag_21:\n      mload(0x40)\n      dup1\n      swap2\n      sub\n      swap1\n      return\n        /* \"Factory.sol\":433:720  function deployWithCreate2(string memory _name, bytes32 salt) public payable returns (address) {... */\n    tag_5:\n      tag_23\n      0x04\n      dup1\n      calldatasize\n      sub\n      dup2\n      add\n      swap1\n      tag_24\n      swap2\n      swap1\n      tag_25\n      jump\t// in\n    tag_24:\n      tag_26\n      jump\t// in\n    tag_23:\n      mload(0x40)\n      tag_27\n      swap2\n      swap1\n      tag_11\n      jump\t// in\n    tag_27:\n      mload(0x40)\n      dup1\n      swap2\n      sub\n      swap1\n      return\n        /* \"Factory.sol\":165:425  function deployWithCreate(string memory _name) public payable returns (address) {... */\n    tag_9:\n        /* \"Factory.sol\":236:243  address */\n      0x00\n        /* \"Factory.sol\":256:275  ChildContract child */\n      0x00\n        /* \"Factory.sol\":303:312  msg.value */\n      callvalue\n        /* \"Factory.sol\":314:324  msg.sender */\n      caller\n        /* \"Factory.sol\":326:331  _name */\n      dup5\n        /* \"Factory.sol\":278:332  new ChildContract{value: msg.value}(msg.sender, _name) */\n      mload(0x40)\n      tag_29\n      swap1\n      tag_30\n      jump\t// in\n    tag_29:\n      tag_31\n      swap3\n      swap2\n      swap1\n      tag_32\n      jump\t// in\n    tag_31:\n      mload(0x40)\n      dup1\n      swap2\n      sub\n      swap1\n      dup3\n      create\n      swap1\n      pop\n      dup1\n      iszero\n      dup1\n      iszero\n      tag_33\n      jumpi\n      returndatacopy(0x00, 0x00, returndatasize)\n      revert(0x00, returndatasize)\n    tag_33:\n      pop\n        /* \"Factory.sol\":256:332  ChildContract child = new ChildContract{value: msg.value}(msg.sender, _name) */\n      swap1\n      pop\n        /* \"Factory.sol\":345:362  deployedContracts */\n      0x00\n        /* \"Factory.sol\":376:381  child */\n      dup2\n        /* \"Factory.sol\":345:383  deployedContracts.push(address(child)) */\n      swap1\n      dup1\n      0x01\n      dup2\n      sload\n      add\n      dup1\n      dup3\n      sstore\n      dup1\n      swap2\n      pop\n      pop\n      0x01\n      swap1\n      sub\n      swap1\n      0x00\n      mstore\n      keccak256(0x00, 0x20)\n      add\n      0x00\n      swap1\n      swap2\n      swap1\n      swap2\n      swap1\n      swap2\n      0x0100\n      exp\n      dup2\n      sload\n      dup2\n      0xffffffffffffffffffffffffffffffffffffffff\n      mul\n      not\n      and\n      swap1\n      dup4\n      0xffffffffffffffffffffffffffffffffffffffff\n      and\n      mul\n      or\n      swap1\n      sstore\n      pop\n        /* \"Factory.sol\":411:416  child */\n      dup1\n        /* \"Factory.sol\":396:417  return address(child) */\n      swap2\n      pop\n      pop\n        /* \"Factory.sol\":165:425  function deployWithCreate(string memory _name) public payable returns (address) {... */\n      swap2\n      swap1\n      pop\n      jump\t// out\n        /* \"Factory.sol\":118:152  address[] public deployedContracts */\n    tag_16:\n      0x00\n      dup2\n      dup2\n      sload\n      dup2\n      lt\n      tag_35\n      jumpi\n      0x00\n      dup1\n      revert\n    tag_35:\n      swap1\n      0x00\n      mstore\n      keccak256(0x00, 0x20)\n      add\n      0x00\n      swap2\n      pop\n      sload\n      swap1\n      0x0100\n      exp\n      swap1\n      div\n      0xffffffffffffffffffffffffffffffffffffffff\n      and\n      dup2\n      jump\t// out\n        /* \"Factory.sol\":728:842  function getDeployedContracts() public view returns (address[] memory) {... */\n    tag_20:\n        /* \"Factory.sol\":781:797  address[] memory */\n      0x60\n        /* \"Factory.sol\":817:834  deployedContracts */\n      0x00\n        /* \"Factory.sol\":810:834  return deployedContracts */\n      dup1\n      sload\n      dup1\n      0x20\n      mul\n      0x20\n      add\n      mload(0x40)\n      swap1\n      dup2\n      add\n      0x40\n      mstore\n      dup1\n      swap3\n      swap2\n      swap1\n      dup2\n      dup2\n      mstore\n      0x20\n      add\n      dup3\n      dup1\n      sload\n      dup1\n      iszero\n      tag_38\n      jumpi\n      0x20\n      mul\n      dup3\n      add\n      swap2\n      swap1\n      0x00\n      mstore\n      keccak256(0x00, 0x20)\n      swap1\n    tag_39:\n      dup2\n      0x00\n      swap1\n      sload\n      swap1\n      0x0100\n      exp\n      swap1\n      div\n      0xffffffffffffffffffffffffffffffffffffffff\n      and\n      0xffffffffffffffffffffffffffffffffffffffff\n      and\n      dup2\n      mstore\n      0x20\n      add\n      swap1\n      0x01\n      add\n      swap1\n      dup1\n      dup4\n      gt\n      tag_39\n      jumpi\n    tag_38:\n      pop\n      pop\n      pop\n      pop\n      pop\n      swap1\n      pop\n        /* \"Factory.sol\":728:842  function getDeployedContracts() public view returns (address[] memory) {... */\n      swap1\n      jump\t// out\n        /* \"Factory.sol\":433:720  function deployWithCreate2(string memory _name, bytes32 salt) public payable returns (address) {... */\n    tag_26:\n        /* \"Factory.sol\":519:526  address */\n      0x00\n        /* \"Factory.sol\":539:558  ChildContract child */\n      0x00\n        /* \"Factory.sol\":585:589  salt */\n      dup3\n        /* \"Factory.sol\":598:607  msg.value */\n      callvalue\n        /* \"Factory.sol\":609:619  msg.sender */\n      caller\n        /* \"Factory.sol\":621:626  _name */\n      dup7\n        /* \"Factory.sol\":561:627  new ChildContract{salt: salt, value: msg.value}(msg.sender, _name) */\n      mload(0x40)\n      tag_41\n      swap1\n      tag_30\n      jump\t// in\n    tag_41:\n      tag_42\n      swap3\n      swap2\n      swap1\n      tag_32\n      jump\t// in\n    tag_42:\n      dup3\n      swap1\n      mload(0x40)\n      dup1\n      swap2\n      sub\n      swap1\n      dup4\n      create2\n      swap1\n      pop\n      swap1\n      pop\n      dup1\n      iszero\n      dup1\n      iszero\n      tag_43\n      jumpi\n      returndatacopy(0x00, 0x00, returndatasize)\n      revert(0x00, returndatasize)\n    tag_43:\n      pop\n        /* \"Factory.sol\":539:627  ChildContract child = new ChildContract{salt: salt, value: msg.value}(msg.sender, _name) */\n      swap1\n      pop\n        /* \"Factory.sol\":640:657  deployedContracts */\n      0x00\n        /* \"Factory.sol\":671:676  child */\n      dup2\n        /* \"Factory.sol\":640:678  deployedContracts.push(address(child)) */\n      swap1\n      dup1\n      0x01\n      dup2\n      sload\n      add\n      dup1\n      dup3\n      sstore\n      dup1\n      swap2\n      pop\n      pop\n      0x01\n      swap1\n      sub\n      swap1\n      0x00\n      mstore\n      keccak256(0x00, 0x20)\n      add\n      0x00\n      swap1\n      swap2\n      swap1\n      swap2\n      swap1\n      swap2\n      0x0100\n      exp\n      dup2\n      sload\n      dup2\n      0xffffffffffffffffffffffffffffffffffffffff\n      mul\n      not\n      and\n      swap1\n      dup4\n      0xffffffffffffffffffffffffffffffffffffffff\n      and\n      mul\n      or\n      swap1\n      sstore\n      pop\n        /* \"Factory.sol\":706:711  child */\n      dup1\n        /* \"Factory.sol\":691:712  return address(child) */\n      swap2\n      pop\n      pop\n        /* \"Factory.sol\":433:720  function deployWithCreate2(string memory _name, bytes32 salt) public payable returns (address) {... */\n      swap3\n      swap2\n      pop\n      pop\n      jump\t// out\n    tag_30:\n      dataSize(sub_0)\n      dup1\n      dataOffset(sub_0)\n      dup4\n      codecopy\n      add\n      swap1\n      jump\t// out\n        /* \"#utility.yul\":7:82   */\n    tag_45:\n        /* \"#utility.yul\":40:46   */\n      0x00\n        /* \"#utility.yul\":73:75   */\n      0x40\n        /* \"#utility.yul\":67:76   */\n      mload\n        /* \"#utility.yul\":57:76   */\n      swap1\n      pop\n        /* \"#utility.yul\":7:82   */\n      swap1\n      jump\t// out\n        /* \"#utility.yul\":88:205   */\n    tag_46:\n        /* \"#utility.yul\":197:198   */\n      0x00\n        /* \"#utility.yul\":194:195   */\n      0x00\n        /* \"#utility.yul\":187:199   */\n      revert\n        /* \"#utility.yul\":211:328   */\n    tag_47:\n        /* \"#utility.yul\":320:321   */\n      0x00\n        /* \"#utility.yul\":317:318   */\n      0x00\n        /* \"#utility.yul\":310:322   */\n      revert\n        /* \"#utility.yul\":334:451   */\n    tag_48:\n        /* \"#utility.yul\":443:444   */\n      0x00\n        /* \"#utility.yul\":440:441   */\n      0x00\n        /* \"#utility.yul\":433:445   */\n      revert\n        /* \"#utility.yul\":457:574   */\n    tag_49:\n        /* \"#utility.yul\":566:567   */\n      0x00\n        /* \"#utility.yul\":563:564   */\n      0x00\n        /* \"#utility.yul\":556:568   */\n      revert\n        /* \"#utility.yul\":580:682   */\n    tag_50:\n        /* \"#utility.yul\":621:627   */\n      0x00\n        /* \"#utility.yul\":672:674   */\n      0x1f\n        /* \"#utility.yul\":668:675   */\n      not\n        /* \"#utility.yul\":663:665   */\n      0x1f\n        /* \"#utility.yul\":656:661   */\n      dup4\n        /* \"#utility.yul\":652:666   */\n      add\n        /* \"#utility.yul\":648:676   */\n      and\n        /* \"#utility.yul\":638:676   */\n      swap1\n      pop\n        /* \"#utility.yul\":580:682   */\n      swap2\n      swap1\n      pop\n      jump\t// out\n        /* \"#utility.yul\":688:868   */\n    tag_51:\n        /* \"#utility.yul\":736:813   */\n      0x4e487b7100000000000000000000000000000000000000000000000000000000\n        /* \"#utility.yul\":733:734   */\n      0x00\n        /* \"#utility.yul\":726:814   */\n      mstore\n        /* \"#utility.yul\":833:837   */\n      0x41\n        /* \"#utility.yul\":830:831   */\n      0x04\n        /* \"#utility.yul\":823:838   */\n      mstore\n        /* \"#utility.yul\":857:861   */\n      0x24\n        /* \"#utility.yul\":854:855   */\n      0x00\n        /* \"#utility.yul\":847:862   */\n      revert\n        /* \"#utility.yul\":874:1155   */\n    tag_52:\n        /* \"#utility.yul\":957:984   */\n      tag_87\n        /* \"#utility.yul\":979:983   */\n      dup3\n        /* \"#utility.yul\":957:984   */\n      tag_50\n      jump\t// in\n    tag_87:\n        /* \"#utility.yul\":949:955   */\n      dup2\n        /* \"#utility.yul\":945:985   */\n      add\n        /* \"#utility.yul\":1087:1093   */\n      dup2\n        /* \"#utility.yul\":1075:1085   */\n      dup2\n        /* \"#utility.yul\":1072:1094   */\n      lt\n        /* \"#utility.yul\":1051:1069   */\n      0xffffffffffffffff\n        /* \"#utility.yul\":1039:1049   */\n      dup3\n        /* \"#utility.yul\":1036:1070   */\n      gt\n        /* \"#utility.yul\":1033:1095   */\n      or\n        /* \"#utility.yul\":1030:1118   */\n      iszero\n      tag_88\n      jumpi\n        /* \"#utility.yul\":1098:1116   */\n      tag_89\n      tag_51\n      jump\t// in\n    tag_89:\n        /* \"#utility.yul\":1030:1118   */\n    tag_88:\n        /* \"#utility.yul\":1138:1148   */\n      dup1\n        /* \"#utility.yul\":1134:1136   */\n      0x40\n        /* \"#utility.yul\":1127:1149   */\n      mstore\n        /* \"#utility.yul\":917:1155   */\n      pop\n        /* \"#utility.yul\":874:1155   */\n      pop\n      pop\n      jump\t// out\n        /* \"#utility.yul\":1161:1290   */\n    tag_53:\n        /* \"#utility.yul\":1195:1201   */\n      0x00\n        /* \"#utility.yul\":1222:1242   */\n      tag_91\n      tag_45\n      jump\t// in\n    tag_91:\n        /* \"#utility.yul\":1212:1242   */\n      swap1\n      pop\n        /* \"#utility.yul\":1251:1284   */\n      tag_92\n        /* \"#utility.yul\":1279:1283   */\n      dup3\n        /* \"#utility.yul\":1271:1277   */\n      dup3\n        /* \"#utility.yul\":1251:1284   */\n      tag_52\n      jump\t// in\n    tag_92:\n        /* \"#utility.yul\":1161:1290   */\n      swap2\n      swap1\n      pop\n      jump\t// out\n        /* \"#utility.yul\":1296:1604   */\n    tag_54:\n        /* \"#utility.yul\":1358:1362   */\n      0x00\n        /* \"#utility.yul\":1448:1466   */\n      0xffffffffffffffff\n        /* \"#utility.yul\":1440:1446   */\n      dup3\n        /* \"#utility.yul\":1437:1467   */\n      gt\n        /* \"#utility.yul\":1434:1490   */\n      iszero\n      tag_94\n      jumpi\n        /* \"#utility.yul\":1470:1488   */\n      tag_95\n      tag_51\n      jump\t// in\n    tag_95:\n        /* \"#utility.yul\":1434:1490   */\n    tag_94:\n        /* \"#utility.yul\":1508:1537   */\n      tag_96\n        /* \"#utility.yul\":1530:1536   */\n      dup3\n        /* \"#utility.yul\":1508:1537   */\n      tag_50\n      jump\t// in\n    tag_96:\n        /* \"#utility.yul\":1500:1537   */\n      swap1\n      pop\n        /* \"#utility.yul\":1592:1596   */\n      0x20\n        /* \"#utility.yul\":1586:1590   */\n      dup2\n        /* \"#utility.yul\":1582:1597   */\n      add\n        /* \"#utility.yul\":1574:1597   */\n      swap1\n      pop\n        /* \"#utility.yul\":1296:1604   */\n      swap2\n      swap1\n      pop\n      jump\t// out\n        /* \"#utility.yul\":1610:1758   */\n    tag_55:\n        /* \"#utility.yul\":1708:1714   */\n      dup3\n        /* \"#utility.yul\":1703:1706   */\n      dup2\n        /* \"#utility.yul\":1698:1701   */\n      dup4\n        /* \"#utility.yul\":1685:1715   */\n      calldatacopy\n        /* \"#utility.yul\":1749:1750   */\n      0x00\n        /* \"#utility.yul\":1740:1746   */\n      dup4\n        /* \"#utility.yul\":1735:1738   */\n      dup4\n        /* \"#utility.yul\":1731:1747   */\n      add\n        /* \"#utility.yul\":1724:1751   */\n      mstore\n        /* \"#utility.yul\":1610:1758   */\n      pop\n      pop\n      pop\n      jump\t// out\n        /* \"#utility.yul\":1764:2189   */\n    tag_56:\n        /* \"#utility.yul\":1842:1847   */\n      0x00\n        /* \"#utility.yul\":1867:1933   */\n      tag_99\n        /* \"#utility.yul\":1883:1932   */\n      tag_100\n        /* \"#utility.yul\":1925:1931   */\n      dup5\n        /* \"#utility.yul\":1883:1932   */\n      tag_54\n      jump\t// in\n    tag_100:\n        /* \"#utility.yul\":1867:1933   */\n      tag_53\n      jump\t// in\n    tag_99:\n        /* \"#utility.yul\":1858:1933   */\n      swap1\n      pop\n        /* \"#utility.yul\":1956:1962   */\n      dup3\n        /* \"#utility.yul\":1949:1954   */\n      dup2\n        /* \"#utility.yul\":1942:1963   */\n      mstore\n        /* \"#utility.yul\":1994:1998   */\n      0x20\n        /* \"#utility.yul\":1987:1992   */\n      dup2\n        /* \"#utility.yul\":1983:1999   */\n      add\n        /* \"#utility.yul\":2032:2035   */\n      dup5\n        /* \"#utility.yul\":2023:2029   */\n      dup5\n        /* \"#utility.yul\":2018:2021   */\n      dup5\n        /* \"#utility.yul\":2014:2030   */\n      add\n        /* \"#utility.yul\":2011:2036   */\n      gt\n        /* \"#utility.yul\":2008:2120   */\n      iszero\n      tag_101\n      jumpi\n        /* \"#utility.yul\":2039:2118   */\n      tag_102\n      tag_49\n      jump\t// in\n    tag_102:\n        /* \"#utility.yul\":2008:2120   */\n    tag_101:\n        /* \"#utility.yul\":2129:2183   */\n      tag_103\n        /* \"#utility.yul\":2176:2182   */\n      dup5\n        /* \"#utility.yul\":2171:2174   */\n      dup3\n        /* \"#utility.yul\":2166:2169   */\n      dup6\n        /* \"#utility.yul\":2129:2183   */\n      tag_55\n      jump\t// in\n    tag_103:\n        /* \"#utility.yul\":1848:2189   */\n      pop\n        /* \"#utility.yul\":1764:2189   */\n      swap4\n      swap3\n      pop\n      pop\n      pop\n      jump\t// out\n        /* \"#utility.yul\":2209:2549   */\n    tag_57:\n        /* \"#utility.yul\":2265:2270   */\n      0x00\n        /* \"#utility.yul\":2314:2317   */\n      dup3\n        /* \"#utility.yul\":2307:2311   */\n      0x1f\n        /* \"#utility.yul\":2299:2305   */\n      dup4\n        /* \"#utility.yul\":2295:2312   */\n      add\n        /* \"#utility.yul\":2291:2318   */\n      slt\n        /* \"#utility.yul\":2281:2403   */\n      tag_105\n      jumpi\n        /* \"#utility.yul\":2322:2401   */\n      tag_106\n      tag_48\n      jump\t// in\n    tag_106:\n        /* \"#utility.yul\":2281:2403   */\n    tag_105:\n        /* \"#utility.yul\":2439:2445   */\n      dup2\n        /* \"#utility.yul\":2426:2446   */\n      calldataload\n        /* \"#utility.yul\":2464:2543   */\n      tag_107\n        /* \"#utility.yul\":2539:2542   */\n      dup5\n        /* \"#utility.yul\":2531:2537   */\n      dup3\n        /* \"#utility.yul\":2524:2528   */\n      0x20\n        /* \"#utility.yul\":2516:2522   */\n      dup7\n        /* \"#utility.yul\":2512:2529   */\n      add\n        /* \"#utility.yul\":2464:2543   */\n      tag_56\n      jump\t// in\n    tag_107:\n        /* \"#utility.yul\":2455:2543   */\n      swap2\n      pop\n        /* \"#utility.yul\":2271:2549   */\n      pop\n        /* \"#utility.yul\":2209:2549   */\n      swap3\n      swap2\n      pop\n      pop\n      jump\t// out\n        /* \"#utility.yul\":2555:3064   */\n    tag_8:\n        /* \"#utility.yul\":2624:2630   */\n      0x00\n        /* \"#utility.yul\":2673:2675   */\n      0x20\n        /* \"#utility.yul\":2661:2670   */\n      dup3\n        /* \"#utility.yul\":2652:2659   */\n      dup5\n        /* \"#utility.yul\":2648:2671   */\n      sub\n        /* \"#utility.yul\":2644:2676   */\n      slt\n        /* \"#utility.yul\":2641:2760   */\n      iszero\n      tag_109\n      jumpi\n        /* \"#utility.yul\":2679:2758   */\n      tag_110\n      tag_46\n      jump\t// in\n    tag_110:\n        /* \"#utility.yul\":2641:2760   */\n    tag_109:\n        /* \"#utility.yul\":2827:2828   */\n      0x00\n        /* \"#utility.yul\":2816:2825   */\n      dup3\n        /* \"#utility.yul\":2812:2829   */\n      add\n        /* \"#utility.yul\":2799:2830   */\n      calldataload\n        /* \"#utility.yul\":2857:2875   */\n      0xffffffffffffffff\n        /* \"#utility.yul\":2849:2855   */\n      dup2\n        /* \"#utility.yul\":2846:2876   */\n      gt\n        /* \"#utility.yul\":2843:2960   */\n      iszero\n      tag_111\n      jumpi\n        /* \"#utility.yul\":2879:2958   */\n      tag_112\n      tag_47\n      jump\t// in\n    tag_112:\n        /* \"#utility.yul\":2843:2960   */\n    tag_111:\n        /* \"#utility.yul\":2984:3047   */\n      tag_113\n        /* \"#utility.yul\":3039:3046   */\n      dup5\n        /* \"#utility.yul\":3030:3036   */\n      dup3\n        /* \"#utility.yul\":3019:3028   */\n      dup6\n        /* \"#utility.yul\":3015:3037   */\n      add\n        /* \"#utility.yul\":2984:3047   */\n      tag_57\n      jump\t// in\n    tag_113:\n        /* \"#utility.yul\":2974:3047   */\n      swap2\n      pop\n        /* \"#utility.yul\":2770:3057   */\n      pop\n        /* \"#utility.yul\":2555:3064   */\n      swap3\n      swap2\n      pop\n      pop\n      jump\t// out\n        /* \"#utility.yul\":3070:3196   */\n    tag_58:\n        /* \"#utility.yul\":3107:3114   */\n      0x00\n        /* \"#utility.yul\":3147:3189   */\n      0xffffffffffffffffffffffffffffffffffffffff\n        /* \"#utility.yul\":3140:3145   */\n      dup3\n        /* \"#utility.yul\":3136:3190   */\n      and\n        /* \"#utility.yul\":3125:3190   */\n      swap1\n      pop\n        /* \"#utility.yul\":3070:3196   */\n      swap2\n      swap1\n      pop\n      jump\t// out\n        /* \"#utility.yul\":3202:3298   */\n    tag_59:\n        /* \"#utility.yul\":3239:3246   */\n      0x00\n        /* \"#utility.yul\":3268:3292   */\n      tag_116\n        /* \"#utility.yul\":3286:3291   */\n      dup3\n        /* \"#utility.yul\":3268:3292   */\n      tag_58\n      jump\t// in\n    tag_116:\n        /* \"#utility.yul\":3257:3292   */\n      swap1\n      pop\n        /* \"#utility.yul\":3202:3298   */\n      swap2\n      swap1\n      pop\n      jump\t// out\n        /* \"#utility.yul\":3304:3422   */\n    tag_60:\n        /* \"#utility.yul\":3391:3415   */\n      tag_118\n        /* \"#utility.yul\":3409:3414   */\n      dup2\n        /* \"#utility.yul\":3391:3415   */\n      tag_59\n      jump\t// in\n    tag_118:\n        /* \"#utility.yul\":3386:3389   */\n      dup3\n        /* \"#utility.yul\":3379:3416   */\n      mstore\n        /* \"#utility.yul\":3304:3422   */\n      pop\n      pop\n      jump\t// out\n        /* \"#utility.yul\":3428:3650   */\n    tag_11:\n        /* \"#utility.yul\":3521:3525   */\n      0x00\n        /* \"#utility.yul\":3559:3561   */\n      0x20\n        /* \"#utility.yul\":3548:3557   */\n      dup3\n        /* \"#utility.yul\":3544:3562   */\n      add\n        /* \"#utility.yul\":3536:3562   */\n      swap1\n      pop\n        /* \"#utility.yul\":3572:3643   */\n      tag_120\n        /* \"#utility.yul\":3640:3641   */\n      0x00\n        /* \"#utility.yul\":3629:3638   */\n      dup4\n        /* \"#utility.yul\":3625:3642   */\n      add\n        /* \"#utility.yul\":3616:3622   */\n      dup5\n        /* \"#utility.yul\":3572:3643   */\n      tag_60\n      jump\t// in\n    tag_120:\n        /* \"#utility.yul\":3428:3650   */\n      swap3\n      swap2\n      pop\n      pop\n      jump\t// out\n        /* \"#utility.yul\":3656:3733   */\n    tag_61:\n        /* \"#utility.yul\":3693:3700   */\n      0x00\n        /* \"#utility.yul\":3722:3727   */\n      dup2\n        /* \"#utility.yul\":3711:3727   */\n      swap1\n      pop\n        /* \"#utility.yul\":3656:3733   */\n      swap2\n      swap1\n      pop\n      jump\t// out\n        /* \"#utility.yul\":3739:3861   */\n    tag_62:\n        /* \"#utility.yul\":3812:3836   */\n      tag_123\n        /* \"#utility.yul\":3830:3835   */\n      dup2\n        /* \"#utility.yul\":3812:3836   */\n      tag_61\n      jump\t// in\n    tag_123:\n        /* \"#utility.yul\":3805:3810   */\n      dup2\n        /* \"#utility.yul\":3802:3837   */\n      eq\n        /* \"#utility.yul\":3792:3855   */\n      tag_124\n      jumpi\n        /* \"#utility.yul\":3851:3852   */\n      0x00\n        /* \"#utility.yul\":3848:3849   */\n      0x00\n        /* \"#utility.yul\":3841:3853   */\n      revert\n        /* \"#utility.yul\":3792:3855   */\n    tag_124:\n        /* \"#utility.yul\":3739:3861   */\n      pop\n      jump\t// out\n        /* \"#utility.yul\":3867:4006   */\n    tag_63:\n        /* \"#utility.yul\":3913:3918   */\n      0x00\n        /* \"#utility.yul\":3951:3957   */\n      dup2\n        /* \"#utility.yul\":3938:3958   */\n      calldataload\n        /* \"#utility.yul\":3929:3958   */\n      swap1\n      pop\n        /* \"#utility.yul\":3967:4000   */\n      tag_126\n        /* \"#utility.yul\":3994:3999   */\n      dup2\n        /* \"#utility.yul\":3967:4000   */\n      tag_62\n      jump\t// in\n    tag_126:\n        /* \"#utility.yul\":3867:4006   */\n      swap3\n      swap2\n      pop\n      pop\n      jump\t// out\n        /* \"#utility.yul\":4012:4341   */\n    tag_15:\n        /* \"#utility.yul\":4071:4077   */\n      0x00\n        /* \"#utility.yul\":4120:4122   */\n      0x20\n        /* \"#utility.yul\":4108:4117   */\n      dup3\n        /* \"#utility.yul\":4099:4106   */\n      dup5\n        /* \"#utility.yul\":4095:4118   */\n      sub\n        /* \"#utility.yul\":4091:4123   */\n      slt\n        /* \"#utility.yul\":4088:4207   */\n      iszero\n      tag_128\n      jumpi\n        /* \"#utility.yul\":4126:4205   */\n      tag_129\n      tag_46\n      jump\t// in\n    tag_129:\n        /* \"#utility.yul\":4088:4207   */\n    tag_128:\n        /* \"#utility.yul\":4246:4247   */\n      0x00\n        /* \"#utility.yul\":4271:4324   */\n      tag_130\n        /* \"#utility.yul\":4316:4323   */\n      dup5\n        /* \"#utility.yul\":4307:4313   */\n      dup3\n        /* \"#utility.yul\":4296:4305   */\n      dup6\n        /* \"#utility.yul\":4292:4314   */\n      add\n        /* \"#utility.yul\":4271:4324   */\n      tag_63\n      jump\t// in\n    tag_130:\n        /* \"#utility.yul\":4261:4324   */\n      swap2\n      pop\n        /* \"#utility.yul\":4217:4334   */\n      pop\n        /* \"#utility.yul\":4012:4341   */\n      swap3\n      swap2\n      pop\n      pop\n      jump\t// out\n        /* \"#utility.yul\":4347:4461   */\n    tag_64:\n        /* \"#utility.yul\":4414:4420   */\n      0x00\n        /* \"#utility.yul\":4448:4453   */\n      dup2\n        /* \"#utility.yul\":4442:4454   */\n      mload\n        /* \"#utility.yul\":4432:4454   */\n      swap1\n      pop\n        /* \"#utility.yul\":4347:4461   */\n      swap2\n      swap1\n      pop\n      jump\t// out\n        /* \"#utility.yul\":4467:4651   */\n    tag_65:\n        /* \"#utility.yul\":4566:4577   */\n      0x00\n        /* \"#utility.yul\":4600:4606   */\n      dup3\n        /* \"#utility.yul\":4595:4598   */\n      dup3\n        /* \"#utility.yul\":4588:4607   */\n      mstore\n        /* \"#utility.yul\":4640:4644   */\n      0x20\n        /* \"#utility.yul\":4635:4638   */\n      dup3\n        /* \"#utility.yul\":4631:4645   */\n      add\n        /* \"#utility.yul\":4616:4645   */\n      swap1\n      pop\n        /* \"#utility.yul\":4467:4651   */\n      swap3\n      swap2\n      pop\n      pop\n      jump\t// out\n        /* \"#utility.yul\":4657:4789   */\n    tag_66:\n        /* \"#utility.yul\":4724:4728   */\n      0x00\n        /* \"#utility.yul\":4747:4750   */\n      dup2\n        /* \"#utility.yul\":4739:4750   */\n      swap1\n      pop\n        /* \"#utility.yul\":4777:4781   */\n      0x20\n        /* \"#utility.yul\":4772:4775   */\n      dup3\n        /* \"#utility.yul\":4768:4782   */\n      add\n        /* \"#utility.yul\":4760:4782   */\n      swap1\n      pop\n        /* \"#utility.yul\":4657:4789   */\n      swap2\n      swap1\n      pop\n      jump\t// out\n        /* \"#utility.yul\":4795:4903   */\n    tag_67:\n        /* \"#utility.yul\":4872:4896   */\n      tag_135\n        /* \"#utility.yul\":4890:4895   */\n      dup2\n        /* \"#utility.yul\":4872:4896   */\n      tag_59\n      jump\t// in\n    tag_135:\n        /* \"#utility.yul\":4867:4870   */\n      dup3\n        /* \"#utility.yul\":4860:4897   */\n      mstore\n        /* \"#utility.yul\":4795:4903   */\n      pop\n      pop\n      jump\t// out\n        /* \"#utility.yul\":4909:5088   */\n    tag_68:\n        /* \"#utility.yul\":4978:4988   */\n      0x00\n        /* \"#utility.yul\":4999:5045   */\n      tag_137\n        /* \"#utility.yul\":5041:5044   */\n      dup4\n        /* \"#utility.yul\":5033:5039   */\n      dup4\n        /* \"#utility.yul\":4999:5045   */\n      tag_67\n      jump\t// in\n    tag_137:\n        /* \"#utility.yul\":5077:5081   */\n      0x20\n        /* \"#utility.yul\":5072:5075   */\n      dup4\n        /* \"#utility.yul\":5068:5082   */\n      add\n        /* \"#utility.yul\":5054:5082   */\n      swap1\n      pop\n        /* \"#utility.yul\":4909:5088   */\n      swap3\n      swap2\n      pop\n      pop\n      jump\t// out\n        /* \"#utility.yul\":5094:5207   */\n    tag_69:\n        /* \"#utility.yul\":5164:5168   */\n      0x00\n        /* \"#utility.yul\":5196:5200   */\n      0x20\n        /* \"#utility.yul\":5191:5194   */\n      dup3\n        /* \"#utility.yul\":5187:5201   */\n      add\n        /* \"#utility.yul\":5179:5201   */\n      swap1\n      pop\n        /* \"#utility.yul\":5094:5207   */\n      swap2\n      swap1\n      pop\n      jump\t// out\n        /* \"#utility.yul\":5243:5975   */\n    tag_70:\n        /* \"#utility.yul\":5362:5365   */\n      0x00\n        /* \"#utility.yul\":5391:5445   */\n      tag_140\n        /* \"#utility.yul\":5439:5444   */\n      dup3\n        /* \"#utility.yul\":5391:5445   */\n      tag_64\n      jump\t// in\n    tag_140:\n        /* \"#utility.yul\":5461:5547   */\n      tag_141\n        /* \"#utility.yul\":5540:5546   */\n      dup2\n        /* \"#utility.yul\":5535:5538   */\n      dup6\n        /* \"#utility.yul\":5461:5547   */\n      tag_65\n      jump\t// in\n    tag_141:\n        /* \"#utility.yul\":5454:5547   */\n      swap4\n      pop\n        /* \"#utility.yul\":5571:5627   */\n      tag_142\n        /* \"#utility.yul\":5621:5626   */\n      dup4\n        /* \"#utility.yul\":5571:5627   */\n      tag_66\n      jump\t// in\n    tag_142:\n        /* \"#utility.yul\":5650:5657   */\n      dup1\n        /* \"#utility.yul\":5681:5682   */\n      0x00\n        /* \"#utility.yul\":5666:5950   */\n    tag_143:\n        /* \"#utility.yul\":5691:5697   */\n      dup4\n        /* \"#utility.yul\":5688:5689   */\n      dup2\n        /* \"#utility.yul\":5685:5698   */\n      lt\n        /* \"#utility.yul\":5666:5950   */\n      iszero\n      tag_145\n      jumpi\n        /* \"#utility.yul\":5767:5773   */\n      dup2\n        /* \"#utility.yul\":5761:5774   */\n      mload\n        /* \"#utility.yul\":5794:5857   */\n      tag_146\n        /* \"#utility.yul\":5853:5856   */\n      dup9\n        /* \"#utility.yul\":5838:5851   */\n      dup3\n        /* \"#utility.yul\":5794:5857   */\n      tag_68\n      jump\t// in\n    tag_146:\n        /* \"#utility.yul\":5787:5857   */\n      swap8\n      pop\n        /* \"#utility.yul\":5880:5940   */\n      tag_147\n        /* \"#utility.yul\":5933:5939   */\n      dup4\n        /* \"#utility.yul\":5880:5940   */\n      tag_69\n      jump\t// in\n    tag_147:\n        /* \"#utility.yul\":5870:5940   */\n      swap3\n      pop\n        /* \"#utility.yul\":5726:5950   */\n      pop\n        /* \"#utility.yul\":5713:5714   */\n      0x01\n        /* \"#utility.yul\":5710:5711   */\n      dup2\n        /* \"#utility.yul\":5706:5715   */\n      add\n        /* \"#utility.yul\":5701:5715   */\n      swap1\n      pop\n        /* \"#utility.yul\":5666:5950   */\n      jump(tag_143)\n    tag_145:\n        /* \"#utility.yul\":5670:5684   */\n      pop\n        /* \"#utility.yul\":5966:5969   */\n      dup6\n        /* \"#utility.yul\":5959:5969   */\n      swap4\n      pop\n        /* \"#utility.yul\":5367:5975   */\n      pop\n      pop\n      pop\n        /* \"#utility.yul\":5243:5975   */\n      swap3\n      swap2\n      pop\n      pop\n      jump\t// out\n        /* \"#utility.yul\":5981:6354   */\n    tag_22:\n        /* \"#utility.yul\":6124:6128   */\n      0x00\n        /* \"#utility.yul\":6162:6164   */\n      0x20\n        /* \"#utility.yul\":6151:6160   */\n      dup3\n        /* \"#utility.yul\":6147:6165   */\n      add\n        /* \"#utility.yul\":6139:6165   */\n      swap1\n      pop\n        /* \"#utility.yul\":6211:6220   */\n      dup2\n        /* \"#utility.yul\":6205:6209   */\n      dup2\n        /* \"#utility.yul\":6201:6221   */\n      sub\n        /* \"#utility.yul\":6197:6198   */\n      0x00\n        /* \"#utility.yul\":6186:6195   */\n      dup4\n        /* \"#utility.yul\":6182:6199   */\n      add\n        /* \"#utility.yul\":6175:6222   */\n      mstore\n        /* \"#utility.yul\":6239:6347   */\n      tag_149\n        /* \"#utility.yul\":6342:6346   */\n      dup2\n        /* \"#utility.yul\":6333:6339   */\n      dup5\n        /* \"#utility.yul\":6239:6347   */\n      tag_70\n      jump\t// in\n    tag_149:\n        /* \"#utility.yul\":6231:6347   */\n      swap1\n      pop\n        /* \"#utility.yul\":5981:6354   */\n      swap3\n      swap2\n      pop\n      pop\n      jump\t// out\n        /* \"#utility.yul\":6360:6437   */\n    tag_71:\n        /* \"#utility.yul\":6397:6404   */\n      0x00\n        /* \"#utility.yul\":6426:6431   */\n      dup2\n        /* \"#utility.yul\":6415:6431   */\n      swap1\n      pop\n        /* \"#utility.yul\":6360:6437   */\n      swap2\n      swap1\n      pop\n      jump\t// out\n        /* \"#utility.yul\":6443:6565   */\n    tag_72:\n        /* \"#utility.yul\":6516:6540   */\n      tag_152\n        /* \"#utility.yul\":6534:6539   */\n      dup2\n        /* \"#utility.yul\":6516:6540   */\n      tag_71\n      jump\t// in\n    tag_152:\n        /* \"#utility.yul\":6509:6514   */\n      dup2\n        /* \"#utility.yul\":6506:6541   */\n      eq\n        /* \"#utility.yul\":6496:6559   */\n      tag_153\n      jumpi\n        /* \"#utility.yul\":6555:6556   */\n      0x00\n        /* \"#utility.yul\":6552:6553   */\n      0x00\n        /* \"#utility.yul\":6545:6557   */\n      revert\n        /* \"#utility.yul\":6496:6559   */\n    tag_153:\n        /* \"#utility.yul\":6443:6565   */\n      pop\n      jump\t// out\n        /* \"#utility.yul\":6571:6710   */\n    tag_73:\n        /* \"#utility.yul\":6617:6622   */\n      0x00\n        /* \"#utility.yul\":6655:6661   */\n      dup2\n        /* \"#utility.yul\":6642:6662   */\n      calldataload\n        /* \"#utility.yul\":6633:6662   */\n      swap1\n      pop\n        /* \"#utility.yul\":6671:6704   */\n      tag_155\n        /* \"#utility.yul\":6698:6703   */\n      dup2\n        /* \"#utility.yul\":6671:6704   */\n      tag_72\n      jump\t// in\n    tag_155:\n        /* \"#utility.yul\":6571:6710   */\n      swap3\n      swap2\n      pop\n      pop\n      jump\t// out\n        /* \"#utility.yul\":6716:7370   */\n    tag_25:\n        /* \"#utility.yul\":6794:6800   */\n      0x00\n        /* \"#utility.yul\":6802:6808   */\n      0x00\n        /* \"#utility.yul\":6851:6853   */\n      0x40\n        /* \"#utility.yul\":6839:6848   */\n      dup4\n        /* \"#utility.yul\":6830:6837   */\n      dup6\n        /* \"#utility.yul\":6826:6849   */\n      sub\n        /* \"#utility.yul\":6822:6854   */\n      slt\n        /* \"#utility.yul\":6819:6938   */\n      iszero\n      tag_157\n      jumpi\n        /* \"#utility.yul\":6857:6936   */\n      tag_158\n      tag_46\n      jump\t// in\n    tag_158:\n        /* \"#utility.yul\":6819:6938   */\n    tag_157:\n        /* \"#utility.yul\":7005:7006   */\n      0x00\n        /* \"#utility.yul\":6994:7003   */\n      dup4\n        /* \"#utility.yul\":6990:7007   */\n      add\n        /* \"#utility.yul\":6977:7008   */\n      calldataload\n        /* \"#utility.yul\":7035:7053   */\n      0xffffffffffffffff\n        /* \"#utility.yul\":7027:7033   */\n      dup2\n        /* \"#utility.yul\":7024:7054   */\n      gt\n        /* \"#utility.yul\":7021:7138   */\n      iszero\n      tag_159\n      jumpi\n        /* \"#utility.yul\":7057:7136   */\n      tag_160\n      tag_47\n      jump\t// in\n    tag_160:\n        /* \"#utility.yul\":7021:7138   */\n    tag_159:\n        /* \"#utility.yul\":7162:7225   */\n      tag_161\n        /* \"#utility.yul\":7217:7224   */\n      dup6\n        /* \"#utility.yul\":7208:7214   */\n      dup3\n        /* \"#utility.yul\":7197:7206   */\n      dup7\n        /* \"#utility.yul\":7193:7215   */\n      add\n        /* \"#utility.yul\":7162:7225   */\n      tag_57\n      jump\t// in\n    tag_161:\n        /* \"#utility.yul\":7152:7225   */\n      swap3\n      pop\n        /* \"#utility.yul\":6948:7235   */\n      pop\n        /* \"#utility.yul\":7274:7276   */\n      0x20\n        /* \"#utility.yul\":7300:7353   */\n      tag_162\n        /* \"#utility.yul\":7345:7352   */\n      dup6\n        /* \"#utility.yul\":7336:7342   */\n      dup3\n        /* \"#utility.yul\":7325:7334   */\n      dup7\n        /* \"#utility.yul\":7321:7343   */\n      add\n        /* \"#utility.yul\":7300:7353   */\n      tag_73\n      jump\t// in\n    tag_162:\n        /* \"#utility.yul\":7290:7353   */\n      swap2\n      pop\n        /* \"#utility.yul\":7245:7363   */\n      pop\n        /* \"#utility.yul\":6716:7370   */\n      swap3\n      pop\n      swap3\n      swap1\n      pop\n      jump\t// out\n        /* \"#utility.yul\":7376:7475   */\n    tag_74:\n        /* \"#utility.yul\":7428:7434   */\n      0x00\n        /* \"#utility.yul\":7462:7467   */\n      dup2\n        /* \"#utility.yul\":7456:7468   */\n      mload\n        /* \"#utility.yul\":7446:7468   */\n      swap1\n      pop\n        /* \"#utility.yul\":7376:7475   */\n      swap2\n      swap1\n      pop\n      jump\t// out\n        /* \"#utility.yul\":7481:7650   */\n    tag_75:\n        /* \"#utility.yul\":7565:7576   */\n      0x00\n        /* \"#utility.yul\":7599:7605   */\n      dup3\n        /* \"#utility.yul\":7594:7597   */\n      dup3\n        /* \"#utility.yul\":7587:7606   */\n      mstore\n        /* \"#utility.yul\":7639:7643   */\n      0x20\n        /* \"#utility.yul\":7634:7637   */\n      dup3\n        /* \"#utility.yul\":7630:7644   */\n      add\n        /* \"#utility.yul\":7615:7644   */\n      swap1\n      pop\n        /* \"#utility.yul\":7481:7650   */\n      swap3\n      swap2\n      pop\n      pop\n      jump\t// out\n        /* \"#utility.yul\":7656:7795   */\n    tag_76:\n        /* \"#utility.yul\":7745:7751   */\n      dup3\n        /* \"#utility.yul\":7740:7743   */\n      dup2\n        /* \"#utility.yul\":7735:7738   */\n      dup4\n        /* \"#utility.yul\":7729:7752   */\n      mcopy\n        /* \"#utility.yul\":7786:7787   */\n      0x00\n        /* \"#utility.yul\":7777:7783   */\n      dup4\n        /* \"#utility.yul\":7772:7775   */\n      dup4\n        /* \"#utility.yul\":7768:7784   */\n      add\n        /* \"#utility.yul\":7761:7788   */\n      mstore\n        /* \"#utility.yul\":7656:7795   */\n      pop\n      pop\n      pop\n      jump\t// out\n        /* \"#utility.yul\":7801:8178   */\n    tag_77:\n        /* \"#utility.yul\":7889:7892   */\n      0x00\n        /* \"#utility.yul\":7917:7956   */\n      tag_167\n        /* \"#utility.yul\":7950:7955   */\n      dup3\n        /* \"#utility.yul\":7917:7956   */\n      tag_74\n      jump\t// in\n    tag_167:\n        /* \"#utility.yul\":7972:8043   */\n      tag_168\n        /* \"#utility.yul\":8036:8042   */\n      dup2\n        /* \"#utility.yul\":8031:8034   */\n      dup6\n        /* \"#utility.yul\":7972:8043   */\n      tag_75\n      jump\t// in\n    tag_168:\n        /* \"#utility.yul\":7965:8043   */\n      swap4\n      pop\n        /* \"#utility.yul\":8052:8117   */\n      tag_169\n        /* \"#utility.yul\":8110:8116   */\n      dup2\n        /* \"#utility.yul\":8105:8108   */\n      dup6\n        /* \"#utility.yul\":8098:8102   */\n      0x20\n        /* \"#utility.yul\":8091:8096   */\n      dup7\n        /* \"#utility.yul\":8087:8103   */\n      add\n        /* \"#utility.yul\":8052:8117   */\n      tag_76\n      jump\t// in\n    tag_169:\n        /* \"#utility.yul\":8142:8171   */\n      tag_170\n        /* \"#utility.yul\":8164:8170   */\n      dup2\n        /* \"#utility.yul\":8142:8171   */\n      tag_50\n      jump\t// in\n    tag_170:\n        /* \"#utility.yul\":8137:8140   */\n      dup5\n        /* \"#utility.yul\":8133:8172   */\n      add\n        /* \"#utility.yul\":8126:8172   */\n      swap2\n      pop\n        /* \"#utility.yul\":7893:8178   */\n      pop\n        /* \"#utility.yul\":7801:8178   */\n      swap3\n      swap2\n      pop\n      pop\n      jump\t// out\n        /* \"#utility.yul\":8184:8607   */\n    tag_32:\n        /* \"#utility.yul\":8325:8329   */\n      0x00\n        /* \"#utility.yul\":8363:8365   */\n      0x40\n        /* \"#utility.yul\":8352:8361   */\n      dup3\n        /* \"#utility.yul\":8348:8366   */\n      add\n        /* \"#utility.yul\":8340:8366   */\n      swap1\n      pop\n        /* \"#utility.yul\":8376:8447   */\n      tag_172\n        /* \"#utility.yul\":8444:8445   */\n      0x00\n        /* \"#utility.yul\":8433:8442   */\n      dup4\n        /* \"#utility.yul\":8429:8446   */\n      add\n        /* \"#utility.yul\":8420:8426   */\n      dup6\n        /* \"#utility.yul\":8376:8447   */\n      tag_60\n      jump\t// in\n    tag_172:\n        /* \"#utility.yul\":8494:8503   */\n      dup2\n        /* \"#utility.yul\":8488:8492   */\n      dup2\n        /* \"#utility.yul\":8484:8504   */\n      sub\n        /* \"#utility.yul\":8479:8481   */\n      0x20\n        /* \"#utility.yul\":8468:8477   */\n      dup4\n        /* \"#utility.yul\":8464:8482   */\n      add\n        /* \"#utility.yul\":8457:8505   */\n      mstore\n        /* \"#utility.yul\":8522:8600   */\n      tag_173\n        /* \"#utility.yul\":8595:8599   */\n      dup2\n        /* \"#utility.yul\":8586:8592   */\n      dup5\n        /* \"#utility.yul\":8522:8600   */\n      tag_77\n      jump\t// in\n    tag_173:\n        /* \"#utility.yul\":8514:8600   */\n      swap1\n      pop\n        /* \"#utility.yul\":8184:8607   */\n      swap4\n      swap3\n      pop\n      pop\n      pop\n      jump\t// out\n    stop\n\n    sub_0: assembly {\n            /* \"ChildContract.sol\":61:405  contract ChildContract {... */\n          mstore(0x40, 0x80)\n            /* \"ChildContract.sol\":145:258  constructor(address _owner, string memory _name) payable {... */\n          mload(0x40)\n          sub(codesize, bytecodeSize)\n          dup1\n          bytecodeSize\n          dup4\n          codecopy\n          dup2\n          dup2\n          add\n          0x40\n          mstore\n          dup2\n          add\n          swap1\n          tag_1\n          swap2\n          swap1\n          tag_2\n          jump\t// in\n        tag_1:\n            /* \"ChildContract.sol\":221:227  _owner */\n          dup2\n            /* \"ChildContract.sol\":213:218  owner */\n          0x00\n          0x00\n            /* \"ChildContract.sol\":213:227  owner = _owner */\n          0x0100\n          exp\n          dup2\n          sload\n          dup2\n          0xffffffffffffffffffffffffffffffffffffffff\n          mul\n          not\n          and\n          swap1\n          dup4\n          0xffffffffffffffffffffffffffffffffffffffff\n          and\n          mul\n          or\n          swap1\n          sstore\n          pop\n            /* \"ChildContract.sol\":245:250  _name */\n          dup1\n            /* \"ChildContract.sol\":238:242  name */\n          0x01\n            /* \"ChildContract.sol\":238:250  name = _name */\n          swap1\n          dup2\n          tag_5\n          swap2\n          swap1\n          tag_6\n          jump\t// in\n        tag_5:\n          pop\n            /* \"ChildContract.sol\":145:258  constructor(address _owner, string memory _name) payable {... */\n          pop\n          pop\n            /* \"ChildContract.sol\":61:405  contract ChildContract {... */\n          jump(tag_7)\n            /* \"#utility.yul\":7:82   */\n        tag_8:\n            /* \"#utility.yul\":40:46   */\n          0x00\n            /* \"#utility.yul\":73:75   */\n          0x40\n            /* \"#utility.yul\":67:76   */\n          mload\n            /* \"#utility.yul\":57:76   */\n          swap1\n          pop\n            /* \"#utility.yul\":7:82   */\n          swap1\n          jump\t// out\n            /* \"#utility.yul\":88:205   */\n        tag_9:\n            /* \"#utility.yul\":197:198   */\n          0x00\n            /* \"#utility.yul\":194:195   */\n          0x00\n            /* \"#utility.yul\":187:199   */\n          revert\n            /* \"#utility.yul\":211:328   */\n        tag_10:\n            /* \"#utility.yul\":320:321   */\n          0x00\n            /* \"#utility.yul\":317:318   */\n          0x00\n            /* \"#utility.yul\":310:322   */\n          revert\n            /* \"#utility.yul\":334:460   */\n        tag_11:\n            /* \"#utility.yul\":371:378   */\n          0x00\n            /* \"#utility.yul\":411:453   */\n          0xffffffffffffffffffffffffffffffffffffffff\n            /* \"#utility.yul\":404:409   */\n          dup3\n            /* \"#utility.yul\":400:454   */\n          and\n            /* \"#utility.yul\":389:454   */\n          swap1\n          pop\n            /* \"#utility.yul\":334:460   */\n          swap2\n          swap1\n          pop\n          jump\t// out\n            /* \"#utility.yul\":466:562   */\n        tag_12:\n            /* \"#utility.yul\":503:510   */\n          0x00\n            /* \"#utility.yul\":532:556   */\n          tag_50\n            /* \"#utility.yul\":550:555   */\n          dup3\n            /* \"#utility.yul\":532:556   */\n          tag_11\n          jump\t// in\n        tag_50:\n            /* \"#utility.yul\":521:556   */\n          swap1\n          pop\n            /* \"#utility.yul\":466:562   */\n          swap2\n          swap1\n          pop\n          jump\t// out\n            /* \"#utility.yul\":568:690   */\n        tag_13:\n            /* \"#utility.yul\":641:665   */\n          tag_52\n            /* \"#utility.yul\":659:664   */\n          dup2\n            /* \"#utility.yul\":641:665   */\n          tag_12\n          jump\t// in\n        tag_52:\n            /* \"#utility.yul\":634:639   */\n          dup2\n            /* \"#utility.yul\":631:666   */\n          eq\n            /* \"#utility.yul\":621:684   */\n          tag_53\n          jumpi\n            /* \"#utility.yul\":680:681   */\n          0x00\n            /* \"#utility.yul\":677:678   */\n          0x00\n            /* \"#utility.yul\":670:682   */\n          revert\n            /* \"#utility.yul\":621:684   */\n        tag_53:\n            /* \"#utility.yul\":568:690   */\n          pop\n          jump\t// out\n            /* \"#utility.yul\":696:839   */\n        tag_14:\n            /* \"#utility.yul\":753:758   */\n          0x00\n            /* \"#utility.yul\":784:790   */\n          dup2\n            /* \"#utility.yul\":778:791   */\n          mload\n            /* \"#utility.yul\":769:791   */\n          swap1\n          pop\n            /* \"#utility.yul\":800:833   */\n          tag_55\n            /* \"#utility.yul\":827:832   */\n          dup2\n            /* \"#utility.yul\":800:833   */\n          tag_13\n          jump\t// in\n        tag_55:\n            /* \"#utility.yul\":696:839   */\n          swap3\n          swap2\n          pop\n          pop\n          jump\t// out\n            /* \"#utility.yul\":845:962   */\n        tag_15:\n            /* \"#utility.yul\":954:955   */\n          0x00\n            /* \"#utility.yul\":951:952   */\n          0x00\n            /* \"#utility.yul\":944:956   */\n          revert\n            /* \"#utility.yul\":968:1085   */\n        tag_16:\n            /* \"#utility.yul\":1077:1078   */\n          0x00\n            /* \"#utility.yul\":1074:1075   */\n          0x00\n            /* \"#utility.yul\":1067:1079   */\n          revert\n            /* \"#utility.yul\":1091:1193   */\n        tag_17:\n            /* \"#utility.yul\":1132:1138   */\n          0x00\n            /* \"#utility.yul\":1183:1185   */\n          0x1f\n            /* \"#utility.yul\":1179:1186   */\n          not\n            /* \"#utility.yul\":1174:1176   */\n          0x1f\n            /* \"#utility.yul\":1167:1172   */\n          dup4\n            /* \"#utility.yul\":1163:1177   */\n          add\n            /* \"#utility.yul\":1159:1187   */\n          and\n            /* \"#utility.yul\":1149:1187   */\n          swap1\n          pop\n            /* \"#utility.yul\":1091:1193   */\n          swap2\n          swap1\n          pop\n          jump\t// out\n            /* \"#utility.yul\":1199:1379   */\n        tag_18:\n            /* \"#utility.yul\":1247:1324   */\n          0x4e487b7100000000000000000000000000000000000000000000000000000000\n            /* \"#utility.yul\":1244:1245   */\n          0x00\n            /* \"#utility.yul\":1237:1325   */\n          mstore\n            /* \"#utility.yul\":1344:1348   */\n          0x41\n            /* \"#utility.yul\":1341:1342   */\n          0x04\n            /* \"#utility.yul\":1334:1349   */\n          mstore\n            /* \"#utility.yul\":1368:1372   */\n          0x24\n            /* \"#utility.yul\":1365:1366   */\n          0x00\n            /* \"#utility.yul\":1358:1373   */\n          revert\n            /* \"#utility.yul\":1385:1666   */\n        tag_19:\n            /* \"#utility.yul\":1468:1495   */\n          tag_61\n            /* \"#utility.yul\":1490:1494   */\n          dup3\n            /* \"#utility.yul\":1468:1495   */\n          tag_17\n          jump\t// in\n        tag_61:\n            /* \"#utility.yul\":1460:1466   */\n          dup2\n            /* \"#utility.yul\":1456:1496   */\n          add\n            /* \"#utility.yul\":1598:1604   */\n          dup2\n            /* \"#utility.yul\":1586:1596   */\n          dup2\n            /* \"#utility.yul\":1583:1605   */\n          lt\n            /* \"#utility.yul\":1562:1580   */\n          0xffffffffffffffff\n            /* \"#utility.yul\":1550:1560   */\n          dup3\n            /* \"#utility.yul\":1547:1581   */\n          gt\n            /* \"#utility.yul\":1544:1606   */\n          or\n            /* \"#utility.yul\":1541:1629   */\n          iszero\n          tag_62\n          jumpi\n            /* \"#utility.yul\":1609:1627   */\n          tag_63\n          tag_18\n          jump\t// in\n        tag_63:\n            /* \"#utility.yul\":1541:1629   */\n        tag_62:\n            /* \"#utility.yul\":1649:1659   */\n          dup1\n            /* \"#utility.yul\":1645:1647   */\n          0x40\n            /* \"#utility.yul\":1638:1660   */\n          mstore\n            /* \"#utility.yul\":1428:1666   */\n          pop\n            /* \"#utility.yul\":1385:1666   */\n          pop\n          pop\n          jump\t// out\n            /* \"#utility.yul\":1672:1801   */\n        tag_20:\n            /* \"#utility.yul\":1706:1712   */\n          0x00\n            /* \"#utility.yul\":1733:1753   */\n          tag_65\n          tag_8\n          jump\t// in\n        tag_65:\n            /* \"#utility.yul\":1723:1753   */\n          swap1\n          pop\n            /* \"#utility.yul\":1762:1795   */\n          tag_66\n            /* \"#utility.yul\":1790:1794   */\n          dup3\n            /* \"#utility.yul\":1782:1788   */\n          dup3\n            /* \"#utility.yul\":1762:1795   */\n          tag_19\n          jump\t// in\n        tag_66:\n            /* \"#utility.yul\":1672:1801   */\n          swap2\n          swap1\n          pop\n          jump\t// out\n            /* \"#utility.yul\":1807:2115   */\n        tag_21:\n            /* \"#utility.yul\":1869:1873   */\n          0x00\n            /* \"#utility.yul\":1959:1977   */\n          0xffffffffffffffff\n            /* \"#utility.yul\":1951:1957   */\n          dup3\n            /* \"#utility.yul\":1948:1978   */\n          gt\n            /* \"#utility.yul\":1945:2001   */\n          iszero\n          tag_68\n          jumpi\n            /* \"#utility.yul\":1981:1999   */\n          tag_69\n          tag_18\n          jump\t// in\n        tag_69:\n            /* \"#utility.yul\":1945:2001   */\n        tag_68:\n            /* \"#utility.yul\":2019:2048   */\n          tag_70\n            /* \"#utility.yul\":2041:2047   */\n          dup3\n            /* \"#utility.yul\":2019:2048   */\n          tag_17\n          jump\t// in\n        tag_70:\n            /* \"#utility.yul\":2011:2048   */\n          swap1\n          pop\n            /* \"#utility.yul\":2103:2107   */\n          0x20\n            /* \"#utility.yul\":2097:2101   */\n          dup2\n            /* \"#utility.yul\":2093:2108   */\n          add\n            /* \"#utility.yul\":2085:2108   */\n          swap1\n          pop\n            /* \"#utility.yul\":1807:2115   */\n          swap2\n          swap1\n          pop\n          jump\t// out\n            /* \"#utility.yul\":2121:2260   */\n        tag_22:\n            /* \"#utility.yul\":2210:2216   */\n          dup3\n            /* \"#utility.yul\":2205:2208   */\n          dup2\n            /* \"#utility.yul\":2200:2203   */\n          dup4\n            /* \"#utility.yul\":2194:2217   */\n          mcopy\n            /* \"#utility.yul\":2251:2252   */\n          0x00\n            /* \"#utility.yul\":2242:2248   */\n          dup4\n            /* \"#utility.yul\":2237:2240   */\n          dup4\n            /* \"#utility.yul\":2233:2249   */\n          add\n            /* \"#utility.yul\":2226:2253   */\n          mstore\n            /* \"#utility.yul\":2121:2260   */\n          pop\n          pop\n          pop\n          jump\t// out\n            /* \"#utility.yul\":2266:2700   */\n        tag_23:\n            /* \"#utility.yul\":2355:2360   */\n          0x00\n            /* \"#utility.yul\":2380:2446   */\n          tag_73\n            /* \"#utility.yul\":2396:2445   */\n          tag_74\n            /* \"#utility.yul\":2438:2444   */\n          dup5\n            /* \"#utility.yul\":2396:2445   */\n          tag_21\n          jump\t// in\n        tag_74:\n            /* \"#utility.yul\":2380:2446   */\n          tag_20\n          jump\t// in\n        tag_73:\n            /* \"#utility.yul\":2371:2446   */\n          swap1\n          pop\n            /* \"#utility.yul\":2469:2475   */\n          dup3\n            /* \"#utility.yul\":2462:2467   */\n          dup2\n            /* \"#utility.yul\":2455:2476   */\n          mstore\n            /* \"#utility.yul\":2507:2511   */\n          0x20\n            /* \"#utility.yul\":2500:2505   */\n          dup2\n            /* \"#utility.yul\":2496:2512   */\n          add\n            /* \"#utility.yul\":2545:2548   */\n          dup5\n            /* \"#utility.yul\":2536:2542   */\n          dup5\n            /* \"#utility.yul\":2531:2534   */\n          dup5\n            /* \"#utility.yul\":2527:2543   */\n          add\n            /* \"#utility.yul\":2524:2549   */\n          gt\n            /* \"#utility.yul\":2521:2633   */\n          iszero\n          tag_75\n          jumpi\n            /* \"#utility.yul\":2552:2631   */\n          tag_76\n          tag_16\n          jump\t// in\n        tag_76:\n            /* \"#utility.yul\":2521:2633   */\n        tag_75:\n            /* \"#utility.yul\":2642:2694   */\n          tag_77\n            /* \"#utility.yul\":2687:2693   */\n          dup5\n            /* \"#utility.yul\":2682:2685   */\n          dup3\n            /* \"#utility.yul\":2677:2680   */\n          dup6\n            /* \"#utility.yul\":2642:2694   */\n          tag_22\n          jump\t// in\n        tag_77:\n            /* \"#utility.yul\":2361:2700   */\n          pop\n            /* \"#utility.yul\":2266:2700   */\n          swap4\n          swap3\n          pop\n          pop\n          pop\n          jump\t// out\n            /* \"#utility.yul\":2720:3075   */\n        tag_24:\n            /* \"#utility.yul\":2787:2792   */\n          0x00\n            /* \"#utility.yul\":2836:2839   */\n          dup3\n            /* \"#utility.yul\":2829:2833   */\n          0x1f\n            /* \"#utility.yul\":2821:2827   */\n          dup4\n            /* \"#utility.yul\":2817:2834   */\n          add\n            /* \"#utility.yul\":2813:2840   */\n          slt\n            /* \"#utility.yul\":2803:2925   */\n          tag_79\n          jumpi\n            /* \"#utility.yul\":2844:2923   */\n          tag_80\n          tag_15\n          jump\t// in\n        tag_80:\n            /* \"#utility.yul\":2803:2925   */\n        tag_79:\n            /* \"#utility.yul\":2954:2960   */\n          dup2\n            /* \"#utility.yul\":2948:2961   */\n          mload\n            /* \"#utility.yul\":2979:3069   */\n          tag_81\n            /* \"#utility.yul\":3065:3068   */\n          dup5\n            /* \"#utility.yul\":3057:3063   */\n          dup3\n            /* \"#utility.yul\":3050:3054   */\n          0x20\n            /* \"#utility.yul\":3042:3048   */\n          dup7\n            /* \"#utility.yul\":3038:3055   */\n          add\n            /* \"#utility.yul\":2979:3069   */\n          tag_23\n          jump\t// in\n        tag_81:\n            /* \"#utility.yul\":2970:3069   */\n          swap2\n          pop\n            /* \"#utility.yul\":2793:3075   */\n          pop\n            /* \"#utility.yul\":2720:3075   */\n          swap3\n          swap2\n          pop\n          pop\n          jump\t// out\n            /* \"#utility.yul\":3081:3761   */\n        tag_2:\n            /* \"#utility.yul\":3170:3176   */\n          0x00\n            /* \"#utility.yul\":3178:3184   */\n          0x00\n            /* \"#utility.yul\":3227:3229   */\n          0x40\n            /* \"#utility.yul\":3215:3224   */\n          dup4\n            /* \"#utility.yul\":3206:3213   */\n          dup6\n            /* \"#utility.yul\":3202:3225   */\n          sub\n            /* \"#utility.yul\":3198:3230   */\n          slt\n            /* \"#utility.yul\":3195:3314   */\n          iszero\n          tag_83\n          jumpi\n            /* \"#utility.yul\":3233:3312   */\n          tag_84\n          tag_9\n          jump\t// in\n        tag_84:\n            /* \"#utility.yul\":3195:3314   */\n        tag_83:\n            /* \"#utility.yul\":3353:3354   */\n          0x00\n            /* \"#utility.yul\":3378:3442   */\n          tag_85\n            /* \"#utility.yul\":3434:3441   */\n          dup6\n            /* \"#utility.yul\":3425:3431   */\n          dup3\n            /* \"#utility.yul\":3414:3423   */\n          dup7\n            /* \"#utility.yul\":3410:3432   */\n          add\n            /* \"#utility.yul\":3378:3442   */\n          tag_14\n          jump\t// in\n        tag_85:\n            /* \"#utility.yul\":3368:3442   */\n          swap3\n          pop\n            /* \"#utility.yul\":3324:3452   */\n          pop\n            /* \"#utility.yul\":3512:3514   */\n          0x20\n            /* \"#utility.yul\":3501:3510   */\n          dup4\n            /* \"#utility.yul\":3497:3515   */\n          add\n            /* \"#utility.yul\":3491:3516   */\n          mload\n            /* \"#utility.yul\":3543:3561   */\n          0xffffffffffffffff\n            /* \"#utility.yul\":3535:3541   */\n          dup2\n            /* \"#utility.yul\":3532:3562   */\n          gt\n            /* \"#utility.yul\":3529:3646   */\n          iszero\n          tag_86\n          jumpi\n            /* \"#utility.yul\":3565:3644   */\n          tag_87\n          tag_10\n          jump\t// in\n        tag_87:\n            /* \"#utility.yul\":3529:3646   */\n        tag_86:\n            /* \"#utility.yul\":3670:3744   */\n          tag_88\n            /* \"#utility.yul\":3736:3743   */\n          dup6\n            /* \"#utility.yul\":3727:3733   */\n          dup3\n            /* \"#utility.yul\":3716:3725   */\n          dup7\n            /* \"#utility.yul\":3712:3734   */\n          add\n            /* \"#utility.yul\":3670:3744   */\n          tag_24\n          jump\t// in\n        tag_88:\n            /* \"#utility.yul\":3660:3744   */\n          swap2\n          pop\n            /* \"#utility.yul\":3462:3754   */\n          pop\n            /* \"#utility.yul\":3081:3761   */\n          swap3\n          pop\n          swap3\n          swap1\n          pop\n          jump\t// out\n            /* \"#utility.yul\":3767:3866   */\n        tag_25:\n            /* \"#utility.yul\":3819:3825   */\n          0x00\n            /* \"#utility.yul\":3853:3858   */\n          dup2\n            /* \"#utility.yul\":3847:3859   */\n          mload\n            /* \"#utility.yul\":3837:3859   */\n          swap1\n          pop\n            /* \"#utility.yul\":3767:3866   */\n          swap2\n          swap1\n          pop\n          jump\t// out\n            /* \"#utility.yul\":3872:4052   */\n        tag_26:\n            /* \"#utility.yul\":3920:3997   */\n          0x4e487b7100000000000000000000000000000000000000000000000000000000\n            /* \"#utility.yul\":3917:3918   */\n          0x00\n            /* \"#utility.yul\":3910:3998   */\n          mstore\n            /* \"#utility.yul\":4017:4021   */\n          0x22\n            /* \"#utility.yul\":4014:4015   */\n          0x04\n            /* \"#utility.yul\":4007:4022   */\n          mstore\n            /* \"#utility.yul\":4041:4045   */\n          0x24\n            /* \"#utility.yul\":4038:4039   */\n          0x00\n            /* \"#utility.yul\":4031:4046   */\n          revert\n            /* \"#utility.yul\":4058:4378   */\n        tag_27:\n            /* \"#utility.yul\":4102:4108   */\n          0x00\n            /* \"#utility.yul\":4139:4140   */\n          0x02\n            /* \"#utility.yul\":4133:4137   */\n          dup3\n            /* \"#utility.yul\":4129:4141   */\n          div\n            /* \"#utility.yul\":4119:4141   */\n          swap1\n          pop\n            /* \"#utility.yul\":4186:4187   */\n          0x01\n            /* \"#utility.yul\":4180:4184   */\n          dup3\n            /* \"#utility.yul\":4176:4188   */\n          and\n            /* \"#utility.yul\":4207:4225   */\n          dup1\n            /* \"#utility.yul\":4197:4278   */\n          tag_92\n          jumpi\n            /* \"#utility.yul\":4263:4267   */\n          0x7f\n            /* \"#utility.yul\":4255:4261   */\n          dup3\n            /* \"#utility.yul\":4251:4268   */\n          and\n            /* \"#utility.yul\":4241:4268   */\n          swap2\n          pop\n            /* \"#utility.yul\":4197:4278   */\n        tag_92:\n            /* \"#utility.yul\":4325:4327   */\n          0x20\n            /* \"#utility.yul\":4317:4323   */\n          dup3\n            /* \"#utility.yul\":4314:4328   */\n          lt\n            /* \"#utility.yul\":4294:4312   */\n          dup2\n            /* \"#utility.yul\":4291:4329   */\n          sub\n            /* \"#utility.yul\":4288:4372   */\n          tag_93\n          jumpi\n            /* \"#utility.yul\":4344:4362   */\n          tag_94\n          tag_26\n          jump\t// in\n        tag_94:\n            /* \"#utility.yul\":4288:4372   */\n        tag_93:\n            /* \"#utility.yul\":4109:4378   */\n          pop\n            /* \"#utility.yul\":4058:4378   */\n          swap2\n          swap1\n          pop\n          jump\t// out\n            /* \"#utility.yul\":4384:4525   */\n        tag_28:\n            /* \"#utility.yul\":4433:4437   */\n          0x00\n            /* \"#utility.yul\":4456:4459   */\n          dup2\n            /* \"#utility.yul\":4448:4459   */\n          swap1\n          pop\n            /* \"#utility.yul\":4479:4482   */\n          dup2\n            /* \"#utility.yul\":4476:4477   */\n          0x00\n            /* \"#utility.yul\":4469:4483   */\n          mstore\n            /* \"#utility.yul\":4513:4517   */\n          0x20\n            /* \"#utility.yul\":4510:4511   */\n          0x00\n            /* \"#utility.yul\":4500:4518   */\n          keccak256\n            /* \"#utility.yul\":4492:4518   */\n          swap1\n          pop\n            /* \"#utility.yul\":4384:4525   */\n          swap2\n          swap1\n          pop\n          jump\t// out\n            /* \"#utility.yul\":4531:4624   */\n        tag_29:\n            /* \"#utility.yul\":4568:4574   */\n          0x00\n            /* \"#utility.yul\":4615:4617   */\n          0x20\n            /* \"#utility.yul\":4610:4612   */\n          0x1f\n            /* \"#utility.yul\":4603:4608   */\n          dup4\n            /* \"#utility.yul\":4599:4613   */\n          add\n            /* \"#utility.yul\":4595:4618   */\n          div\n            /* \"#utility.yul\":4585:4618   */\n          swap1\n          pop\n            /* \"#utility.yul\":4531:4624   */\n          swap2\n          swap1\n          pop\n          jump\t// out\n            /* \"#utility.yul\":4630:4737   */\n        tag_30:\n            /* \"#utility.yul\":4674:4682   */\n          0x00\n            /* \"#utility.yul\":4724:4729   */\n          dup3\n            /* \"#utility.yul\":4718:4722   */\n          dup3\n            /* \"#utility.yul\":4714:4730   */\n          shl\n            /* \"#utility.yul\":4693:4730   */\n          swap1\n          pop\n            /* \"#utility.yul\":4630:4737   */\n          swap3\n          swap2\n          pop\n          pop\n          jump\t// out\n            /* \"#utility.yul\":4743:5136   */\n        tag_31:\n            /* \"#utility.yul\":4812:4818   */\n          0x00\n            /* \"#utility.yul\":4862:4863   */\n          0x08\n            /* \"#utility.yul\":4850:4860   */\n          dup4\n            /* \"#utility.yul\":4846:4864   */\n          mul\n            /* \"#utility.yul\":4885:4982   */\n          tag_99\n            /* \"#utility.yul\":4915:4981   */\n          0xffffffffffffffffffffffffffffffffffffffffffffffffffffffffffffffff\n            /* \"#utility.yul\":4904:4913   */\n          dup3\n            /* \"#utility.yul\":4885:4982   */\n          tag_30\n          jump\t// in\n        tag_99:\n            /* \"#utility.yul\":5003:5042   */\n          tag_100\n            /* \"#utility.yul\":5033:5041   */\n          dup7\n            /* \"#utility.yul\":5022:5031   */\n          dup4\n            /* \"#utility.yul\":5003:5042   */\n          tag_30\n          jump\t// in\n        tag_100:\n            /* \"#utility.yul\":4991:5042   */\n          swap6\n          pop\n            /* \"#utility.yul\":5075:5079   */\n          dup1\n            /* \"#utility.yul\":5071:5080   */\n          not\n            /* \"#utility.yul\":5064:5069   */\n          dup5\n            /* \"#utility.yul\":5060:5081   */\n          and\n            /* \"#utility.yul\":5051:5081   */\n          swap4\n          pop\n            /* \"#utility.yul\":5124:5128   */\n          dup1\n            /* \"#utility.yul\":5114:5122   */\n          dup7\n            /* \"#utility.yul\":5110:5129   */\n          and\n            /* \"#utility.yul\":5103:5108   */\n          dup5\n            /* \"#utility.yul\":5100:5130   */\n          or\n            /* \"#utility.yul\":5090:5130   */\n          swap3\n          pop\n            /* \"#utility.yul\":4819:5136   */\n          pop\n          pop\n            /* \"#utility.yul\":4743:5136   */\n          swap4\n          swap3\n          pop\n          pop\n          pop\n          jump\t// out\n            /* \"#utility.yul\":5142:5219   */\n        tag_32:\n            /* \"#utility.yul\":5179:5186   */\n          0x00\n            /* \"#utility.yul\":5208:5213   */\n          dup2\n            /* \"#utility.yul\":5197:5213   */\n          swap1\n          pop\n            /* \"#utility.yul\":5142:5219   */\n          swap2\n          swap1\n          pop\n          jump\t// out\n            /* \"#utility.yul\":5225:5285   */\n        tag_33:\n            /* \"#utility.yul\":5253:5256   */\n          0x00\n            /* \"#utility.yul\":5274:5279   */\n          dup2\n            /* \"#utility.yul\":5267:5279   */\n          swap1\n          pop\n            /* \"#utility.yul\":5225:5285   */\n          swap2\n          swap1\n          pop\n          jump\t// out\n            /* \"#utility.yul\":5291:5433   */\n        tag_34:\n            /* \"#utility.yul\":5341:5350   */\n          0x00\n            /* \"#utility.yul\":5374:5427   */\n          tag_104\n            /* \"#utility.yul\":5392:5426   */\n          tag_105\n            /* \"#utility.yul\":5401:5425   */\n          tag_106\n            /* \"#utility.yul\":5419:5424   */\n          dup5\n            /* \"#utility.yul\":5401:5425   */\n          tag_32\n          jump\t// in\n        tag_106:\n            /* \"#utility.yul\":5392:5426   */\n          tag_33\n          jump\t// in\n        tag_105:\n            /* \"#utility.yul\":5374:5427   */\n          tag_32\n          jump\t// in\n        tag_104:\n            /* \"#utility.yul\":5361:5427   */\n          swap1\n          pop\n            /* \"#utility.yul\":5291:5433   */\n          swap2\n          swap1\n          pop\n          jump\t// out\n            /* \"#utility.yul\":5439:5514   */\n        tag_35:\n            /* \"#utility.yul\":5482:5485   */\n          0x00\n            /* \"#utility.yul\":5503:5508   */\n          dup2\n            /* \"#utility.yul\":5496:5508   */\n          swap1\n          pop\n            /* \"#utility.yul\":5439:5514   */\n          swap2\n          swap1\n          pop\n          jump\t// out\n            /* \"#utility.yul\":5520:5789   */\n        tag_36:\n            /* \"#utility.yul\":5630:5669   */\n          tag_109\n            /* \"#utility.yul\":5661:5668   */\n          dup4\n            /* \"#utility.yul\":5630:5669   */\n          tag_34\n          jump\t// in\n        tag_109:\n            /* \"#utility.yul\":5691:5782   */\n          tag_110\n            /* \"#utility.yul\":5740:5781   */\n          tag_111\n            /* \"#utility.yul\":5764:5780   */\n          dup3\n            /* \"#utility.yul\":5740:5781   */\n          tag_35\n          jump\t// in\n        tag_111:\n            /* \"#utility.yul\":5732:5738   */\n          dup5\n            /* \"#utility.yul\":5725:5729   */\n          dup5\n            /* \"#utility.yul\":5719:5730   */\n          sload\n            /* \"#utility.yul\":5691:5782   */\n          tag_31\n          jump\t// in\n        tag_110:\n            /* \"#utility.yul\":5685:5689   */\n          dup3\n            /* \"#utility.yul\":5678:5783   */\n          sstore\n            /* \"#utility.yul\":5596:5789   */\n          pop\n            /* \"#utility.yul\":5520:5789   */\n          pop\n          pop\n          pop\n          jump\t// out\n            /* \"#utility.yul\":5795:5868   */\n        tag_37:\n            /* \"#utility.yul\":5840:5843   */\n          0x00\n            /* \"#utility.yul\":5861:5862   */\n          0x00\n            /* \"#utility.yul\":5854:5862   */\n          swap1\n          pop\n            /* \"#utility.yul\":5795:5868   */\n          swap1\n          jump\t// out\n            /* \"#utility.yul\":5874:6063   */\n        tag_38:\n            /* \"#utility.yul\":5951:5983   */\n          tag_114\n          tag_37\n          jump\t// in\n        tag_114:\n            /* \"#utility.yul\":5992:6057   */\n          tag_115\n            /* \"#utility.yul\":6050:6056   */\n          dup2\n            /* \"#utility.yul\":6042:6048   */\n          dup5\n            /* \"#utility.yul\":6036:6040   */\n          dup5\n            /* \"#utility.yul\":5992:6057   */\n          tag_36\n          jump\t// in\n        tag_115:\n            /* \"#utility.yul\":5927:6063   */\n          pop\n            /* \"#utility.yul\":5874:6063   */\n          pop\n          pop\n          jump\t// out\n            /* \"#utility.yul\":6069:6255   */\n        tag_39:\n            /* \"#utility.yul\":6129:6249   */\n        tag_117:\n            /* \"#utility.yul\":6146:6149   */\n          dup2\n            /* \"#utility.yul\":6139:6144   */\n          dup2\n            /* \"#utility.yul\":6136:6150   */\n          lt\n            /* \"#utility.yul\":6129:6249   */\n          iszero\n          tag_119\n          jumpi\n            /* \"#utility.yul\":6200:6239   */\n          tag_120\n            /* \"#utility.yul\":6237:6238   */\n          0x00\n            /* \"#utility.yul\":6230:6235   */\n          dup3\n            /* \"#utility.yul\":6200:6239   */\n          tag_38\n          jump\t// in\n        tag_120:\n            /* \"#utility.yul\":6173:6174   */\n          0x01\n            /* \"#utility.yul\":6166:6171   */\n          dup2\n            /* \"#utility.yul\":6162:6175   */\n          add\n            /* \"#utility.yul\":6153:6175   */\n          swap1\n          pop\n            /* \"#utility.yul\":6129:6249   */\n          jump(tag_117)\n        tag_119:\n            /* \"#utility.yul\":6069:6255   */\n          pop\n          pop\n          jump\t// out\n            /* \"#utility.yul\":6261:6804   */\n        tag_40:\n            /* \"#utility.yul\":6362:6364   */\n          0x1f\n            /* \"#utility.yul\":6357:6360   */\n          dup3\n            /* \"#utility.yul\":6354:6365   */\n          gt\n            /* \"#utility.yul\":6351:6797   */\n          iszero\n          tag_122\n          jumpi\n            /* \"#utility.yul\":6396:6434   */\n          tag_123\n            /* \"#utility.yul\":6428:6433   */\n          dup2\n            /* \"#utility.yul\":6396:6434   */\n          tag_28\n          jump\t// in\n        tag_123:\n            /* \"#utility.yul\":6480:6509   */\n          tag_124\n            /* \"#utility.yul\":6498:6508   */\n          dup5\n            /* \"#utility.yul\":6480:6509   */\n          tag_29\n          jump\t// in\n        tag_124:\n            /* \"#utility.yul\":6470:6478   */\n          dup2\n            /* \"#utility.yul\":6466:6510   */\n          add\n            /* \"#utility.yul\":6663:6665   */\n          0x20\n            /* \"#utility.yul\":6651:6661   */\n          dup6\n            /* \"#utility.yul\":6648:6666   */\n          lt\n            /* \"#utility.yul\":6645:6694   */\n          iszero\n          tag_125\n          jumpi\n            /* \"#utility.yul\":6684:6692   */\n          dup2\n            /* \"#utility.yul\":6669:6692   */\n          swap1\n          pop\n            /* \"#utility.yul\":6645:6694   */\n        tag_125:\n            /* \"#utility.yul\":6707:6787   */\n          tag_126\n            /* \"#utility.yul\":6763:6785   */\n          tag_127\n            /* \"#utility.yul\":6781:6784   */\n          dup6\n            /* \"#utility.yul\":6763:6785   */\n          tag_29\n          jump\t// in\n        tag_127:\n            /* \"#utility.yul\":6753:6761   */\n          dup4\n            /* \"#utility.yul\":6749:6786   */\n          add\n            /* \"#utility.yul\":6736:6747   */\n          dup3\n            /* \"#utility.yul\":6707:6787   */\n          tag_39\n          jump\t// in\n        tag_126:\n            /* \"#utility.yul\":6366:6797   */\n          pop\n          pop\n            /* \"#utility.yul\":6351:6797   */\n        tag_122:\n            /* \"#utility.yul\":6261:6804   */\n          pop\n          pop\n          pop\n          jump\t// out\n            /* \"#utility.yul\":6810:6927   */\n        tag_41:\n            /* \"#utility.yul\":6864:6872   */\n          0x00\n            /* \"#utility.yul\":6914:6919   */\n          dup3\n            /* \"#utility.yul\":6908:6912   */\n          dup3\n            /* \"#utility.yul\":6904:6920   */\n          shr\n            /* \"#utility.yul\":6883:6920   */\n          swap1\n          pop\n            /* \"#utility.yul\":6810:6927   */\n          swap3\n          swap2\n          pop\n          pop\n          jump\t// out\n            /* \"#utility.yul\":6933:7102   */\n        tag_42:\n            /* \"#utility.yul\":6977:6983   */\n          0x00\n            /* \"#utility.yul\":7010:7061   */\n          tag_130\n            /* \"#utility.yul\":7058:7059   */\n          0x00\n            /* \"#utility.yul\":7054:7060   */\n          not\n            /* \"#utility.yul\":7046:7051   */\n          dup5\n            /* \"#utility.yul\":7043:7044   */\n          0x08\n            /* \"#utility.yul\":7039:7052   */\n          mul\n            /* \"#utility.yul\":7010:7061   */\n          tag_41\n          jump\t// in\n        tag_130:\n            /* \"#utility.yul\":7006:7062   */\n          not\n            /* \"#utility.yul\":7091:7095   */\n          dup1\n            /* \"#utility.yul\":7085:7089   */\n          dup4\n            /* \"#utility.yul\":7081:7096   */\n          and\n            /* \"#utility.yul\":7071:7096   */\n          swap2\n          pop\n            /* \"#utility.yul\":6984:7102   */\n          pop\n            /* \"#utility.yul\":6933:7102   */\n          swap3\n          swap2\n          pop\n          pop\n          jump\t// out\n            /* \"#utility.yul\":7107:7402   */\n        tag_43:\n            /* \"#utility.yul\":7183:7187   */\n          0x00\n            /* \"#utility.yul\":7329:7358   */\n          tag_132\n            /* \"#utility.yul\":7354:7357   */\n          dup4\n            /* \"#utility.yul\":7348:7352   */\n          dup4\n            /* \"#utility.yul\":7329:7358   */\n          tag_42\n          jump\t// in\n        tag_132:\n            /* \"#utility.yul\":7321:7358   */\n          swap2\n          pop\n            /* \"#utility.yul\":7391:7394   */\n          dup3\n            /* \"#utility.yul\":7388:7389   */\n          0x02\n            /* \"#utility.yul\":7384:7395   */\n          mul\n            /* \"#utility.yul\":7378:7382   */\n          dup3\n            /* \"#utility.yul\":7375:7396   */\n          or\n            /* \"#utility.yul\":7367:7396   */\n          swap1\n          pop\n            /* \"#utility.yul\":7107:7402   */\n          swap3\n          swap2\n          pop\n          pop\n          jump\t// out\n            /* \"#utility.yul\":7407:8802   */\n        tag_6:\n            /* \"#utility.yul\":7524:7561   */\n          tag_134\n            /* \"#utility.yul\":7557:7560   */\n          dup3\n            /* \"#utility.yul\":7524:7561   */\n          tag_25\n          jump\t// in\n        tag_134:\n            /* \"#utility.yul\":7626:7644   */\n          0xffffffffffffffff\n            /* \"#utility.yul\":7618:7624   */\n          dup2\n            /* \"#utility.yul\":7615:7645   */\n          gt\n            /* \"#utility.yul\":7612:7668   */\n          iszero\n          tag_135\n          jumpi\n            /* \"#utility.yul\":7648:7666   */\n          tag_136\n          tag_18\n          jump\t// in\n        tag_136:\n            /* \"#utility.yul\":7612:7668   */\n        tag_135:\n            /* \"#utility.yul\":7692:7730   */\n          tag_137\n            /* \"#utility.yul\":7724:7728   */\n          dup3\n            /* \"#utility.yul\":7718:7729   */\n          sload\n            /* \"#utility.yul\":7692:7730   */\n          tag_27\n          jump\t// in\n        tag_137:\n            /* \"#utility.yul\":7777:7844   */\n          tag_138\n            /* \"#utility.yul\":7837:7843   */\n          dup3\n            /* \"#utility.yul\":7829:7835   */\n          dup3\n            /* \"#utility.yul\":7823:7827   */\n          dup6\n            /* \"#utility.yul\":7777:7844   */\n          tag_40\n          jump\t// in\n        tag_138:\n            /* \"#utility.yul\":7871:7872   */\n          0x00\n            /* \"#utility.yul\":7895:7899   */\n          0x20\n            /* \"#utility.yul\":7882:7899   */\n          swap1\n          pop\n            /* \"#utility.yul\":7927:7929   */\n          0x1f\n            /* \"#utility.yul\":7919:7925   */\n          dup4\n            /* \"#utility.yul\":7916:7930   */\n          gt\n            /* \"#utility.yul\":7944:7945   */\n          0x01\n            /* \"#utility.yul\":7939:8557   */\n          dup2\n          eq\n          tag_140\n          jumpi\n            /* \"#utility.yul\":8601:8602   */\n          0x00\n            /* \"#utility.yul\":8618:8624   */\n          dup5\n            /* \"#utility.yul\":8615:8692   */\n          iszero\n          tag_141\n          jumpi\n            /* \"#utility.yul\":8667:8676   */\n          dup3\n            /* \"#utility.yul\":8662:8665   */\n          dup8\n            /* \"#utility.yul\":8658:8677   */\n          add\n            /* \"#utility.yul\":8652:8678   */\n          mload\n            /* \"#utility.yul\":8643:8678   */\n          swap1\n          pop\n            /* \"#utility.yul\":8615:8692   */\n        tag_141:\n            /* \"#utility.yul\":8718:8785   */\n          tag_142\n            /* \"#utility.yul\":8778:8784   */\n          dup6\n            /* \"#utility.yul\":8771:8776   */\n          dup3\n            /* \"#utility.yul\":8718:8785   */\n          tag_43\n          jump\t// in\n        tag_142:\n            /* \"#utility.yul\":8712:8716   */\n          dup7\n            /* \"#utility.yul\":8705:8786   */\n          sstore\n            /* \"#utility.yul\":8574:8796   */\n          pop\n            /* \"#utility.yul\":7909:8796   */\n          jump(tag_139)\n            /* \"#utility.yul\":7939:8557   */\n        tag_140:\n            /* \"#utility.yul\":7991:7995   */\n          0x1f\n            /* \"#utility.yul\":7987:7996   */\n          not\n            /* \"#utility.yul\":7979:7985   */\n          dup5\n            /* \"#utility.yul\":7975:7997   */\n          and\n            /* \"#utility.yul\":8025:8062   */\n          tag_143\n            /* \"#utility.yul\":8057:8061   */\n          dup7\n            /* \"#utility.yul\":8025:8062   */\n          tag_28\n          jump\t// in\n        tag_143:\n            /* \"#utility.yul\":8084:8085   */\n          0x00\n            /* \"#utility.yul\":8098:8306   */\n        tag_144:\n            /* \"#utility.yul\":8112:8119   */\n          dup3\n            /* \"#utility.yul\":8109:8110   */\n          dup2\n            /* \"#utility.yul\":8106:8120   */\n          lt\n            /* \"#utility.yul\":8098:8306   */\n          iszero\n          tag_146\n          jumpi\n            /* \"#utility.yul\":8191:8200   */\n          dup5\n            /* \"#utility.yul\":8186:8189   */\n          dup10\n            /* \"#utility.yul\":8182:8201   */\n          add\n            /* \"#utility.yul\":8176:8202   */\n          mload\n            /* \"#utility.yul\":8168:8174   */\n          dup3\n            /* \"#utility.yul\":8161:8203   */\n          sstore\n            /* \"#utility.yul\":8242:8243   */\n          0x01\n            /* \"#utility.yul\":8234:8240   */\n          dup3\n            /* \"#utility.yul\":8230:8244   */\n          add\n            /* \"#utility.yul\":8220:8244   */\n          swap2\n          pop\n            /* \"#utility.yul\":8289:8291   */\n          0x20\n            /* \"#utility.yul\":8278:8287   */\n          dup6\n            /* \"#utility.yul\":8274:8292   */\n          add\n            /* \"#utility.yul\":8261:8292   */\n          swap5\n          pop\n            /* \"#utility.yul\":8135:8139   */\n          0x20\n            /* \"#utility.yul\":8132:8133   */\n          dup2\n            /* \"#utility.yul\":8128:8140   */\n          add\n            /* \"#utility.yul\":8123:8140   */\n          swap1\n          pop\n            /* \"#utility.yul\":8098:8306   */\n          jump(tag_144)\n        tag_146:\n            /* \"#utility.yul\":8334:8340   */\n          dup7\n            /* \"#utility.yul\":8325:8332   */\n          dup4\n            /* \"#utility.yul\":8322:8341   */\n          lt\n            /* \"#utility.yul\":8319:8498   */\n          iszero\n          tag_147\n          jumpi\n            /* \"#utility.yul\":8392:8401   */\n          dup5\n            /* \"#utility.yul\":8387:8390   */\n          dup10\n            /* \"#utility.yul\":8383:8402   */\n          add\n            /* \"#utility.yul\":8377:8403   */\n          mload\n            /* \"#utility.yul\":8435:8483   */\n          tag_148\n            /* \"#utility.yul\":8477:8481   */\n          0x1f\n            /* \"#utility.yul\":8469:8475   */\n          dup10\n            /* \"#utility.yul\":8465:8482   */\n          and\n            /* \"#utility.yul\":8454:8463   */\n          dup3\n            /* \"#utility.yul\":8435:8483   */\n          tag_42\n          jump\t// in\n        tag_148:\n            /* \"#utility.yul\":8427:8433   */\n          dup4\n            /* \"#utility.yul\":8420:8484   */\n          sstore\n            /* \"#utility.yul\":8342:8498   */\n          pop\n            /* \"#utility.yul\":8319:8498   */\n        tag_147:\n            /* \"#utility.yul\":8544:8545   */\n          0x01\n            /* \"#utility.yul\":8540:8541   */\n          0x02\n            /* \"#utility.yul\":8532:8538   */\n          dup9\n            /* \"#utility.yul\":8528:8542   */\n          mul\n            /* \"#utility.yul\":8524:8546   */\n          add\n            /* \"#utility.yul\":8518:8522   */\n          dup9\n            /* \"#utility.yul\":8511:8547   */\n          sstore\n            /* \"#utility.yul\":7946:8557   */\n          pop\n          pop\n          pop\n            /* \"#utility.yul\":7909:8796   */\n        tag_139:\n          pop\n            /* \"#utility.yul\":7499:8802   */\n          pop\n          pop\n          pop\n            /* \"#utility.yul\":7407:8802   */\n          pop\n          pop\n          jump\t// out\n            /* \"ChildContract.sol\":61:405  contract ChildContract {... */\n        tag_7:\n          dataSize(sub_0)\n          dup1\n          dataOffset(sub_0)\n          0x00\n          codecopy\n          0x00\n          return\n        stop\n\n        sub_0: assembly {\n                /* \"ChildContract.sol\":61:405  contract ChildContract {... */\n              mstore(0x40, 0x80)\n              jumpi(tag_1, lt(calldatasize, 0x04))\n              shr(0xe0, calldataload(0x00))\n              dup1\n              0x06fdde03\n              eq\n              tag_3\n              jumpi\n              dup1\n              0x12065fe0\n              eq\n              tag_4\n              jumpi\n              dup1\n              0x8da5cb5b\n              eq\n              tag_5\n              jumpi\n              jump(tag_2)\n            tag_1:\n              jumpi(tag_2, calldatasize)\n              stop\n            tag_2:\n              revert(0x00, 0x00)\n                /* \"ChildContract.sol\":118:136  string public name */\n            tag_3:\n              callvalue\n              dup1\n              iszero\n              tag_8\n              jumpi\n              revert(0x00, 0x00)\n            tag_8:\n              pop\n              tag_9\n              tag_10\n              jump\t// in\n            tag_9:\n              mload(0x40)\n              tag_11\n              swap2\n              swap1\n              tag_12\n              jump\t// in\n            tag_11:\n              mload(0x40)\n              dup1\n              swap2\n              sub\n              swap1\n              return\n                /* \"ChildContract.sol\":266:365  function getBalance() public view returns (uint256) {... */\n            tag_4:\n              callvalue\n              dup1\n              iszero\n              tag_13\n              jumpi\n              revert(0x00, 0x00)\n            tag_13:\n              pop\n              tag_14\n              tag_15\n              jump\t// in\n            tag_14:\n              mload(0x40)\n              tag_16\n              swap2\n              swap1\n              tag_17\n              jump\t// in\n            tag_16:\n              mload(0x40)\n              dup1\n              swap2\n              sub\n              swap1\n              return\n                /* \"ChildContract.sol\":91:111  address public owner */\n            tag_5:\n              callvalue\n              dup1\n              iszero\n              tag_18\n              jumpi\n              revert(0x00, 0x00)\n            tag_18:\n              pop\n              tag_19\n              tag_20\n              jump\t// in\n            tag_19:\n              mload(0x40)\n              tag_21\n              swap2\n              swap1\n              tag_22\n              jump\t// in\n            tag_21:\n              mload(0x40)\n              dup1\n              swap2\n              sub\n              swap1\n              return\n                /* \"ChildContract.sol\":118:136  string public name */\n            tag_10:\n              0x01\n              dup1\n              sload\n              tag_23\n              swap1\n              tag_24\n              jump\t// in\n            tag_23:\n              dup1\n              0x1f\n              add\n              0x20\n              dup1\n              swap2\n              div\n              mul\n              0x20\n              add\n              mload(0x40)\n              swap1\n              dup2\n              add\n              0x40\n              mstore\n              dup1\n              swap3\n              swap2\n              swap1\n              dup2\n              dup2\n              mstore\n              0x20\n              add\n              dup3\n              dup1\n              sload\n              tag_25\n              swap1\n              tag_24\n              jump\t// in\n            tag_25:\n              dup1\n              iszero\n              tag_26\n              jumpi\n              dup1\n              0x1f\n              lt\n              tag_27\n              jumpi\n              0x0100\n              dup1\n              dup4\n              sload\n              div\n              mul\n              dup4\n              mstore\n              swap2\n              0x20\n              add\n              swap2\n              jump(tag_26)\n            tag_27:\n              dup3\n              add\n              swap2\n              swap1\n              0x00\n              mstore\n              keccak256(0x00, 0x20)\n              swap1\n            tag_28:\n              dup2\n              sload\n              dup2\n              mstore\n              swap1\n              0x01\n              add\n              swap1\n              0x20\n              add\n              dup1\n              dup4\n              gt\n              tag_28\n              jumpi\n              dup3\n              swap1\n              sub\n              0x1f\n              and\n              dup3\n              add\n              swap2\n            tag_26:\n              pop\n              pop\n              pop\n              pop\n              pop\n              dup2\n              jump\t// out\n                /* \"ChildContract.sol\":266:365  function getBalance() public view returns (uint256) {... */\n            tag_15:\n                /* \"ChildContract.sol\":309:316  uint256 */\n              0x00\n                /* \"ChildContract.sol\":336:357  address(this).balance */\n              selfbalance\n                /* \"ChildContract.sol\":329:357  return address(this).balance */\n              swap1\n              pop\n                /* \"ChildContract.sol\":266:365  function getBalance() public view returns (uint256) {... */\n              swap1\n              jump\t// out\n                /* \"ChildContract.sol\":91:111  address public owner */\n            tag_20:\n              0x00\n              0x00\n              swap1\n              sload\n              swap1\n              0x0100\n              exp\n              swap1\n              div\n              0xffffffffffffffffffffffffffffffffffffffff\n              and\n              dup2\n              jump\t// out\n                /* \"#utility.yul\":7:106   */\n            tag_30:\n                /* \"#utility.yul\":59:65   */\n              0x00\n                /* \"#utility.yul\":93:98   */\n              dup2\n                /* \"#utility.yul\":87:99   */\n              mload\n                /* \"#utility.yul\":77:99   */\n              swap1\n              pop\n                /* \"#utility.yul\":7:106   */\n              swap2\n              swap1\n              pop\n              jump\t// out\n                /* \"#utility.yul\":112:281   */\n            tag_31:\n                /* \"#utility.yul\":196:207   */\n              0x00\n                /* \"#utility.yul\":230:236   */\n              dup3\n                /* \"#utility.yul\":225:228   */\n              dup3\n                /* \"#utility.yul\":218:237   */\n              mstore\n                /* \"#utility.yul\":270:274   */\n              0x20\n                /* \"#utility.yul\":265:268   */\n              dup3\n                /* \"#utility.yul\":261:275   */\n              add\n                /* \"#utility.yul\":246:275   */\n              swap1\n              pop\n                /* \"#utility.yul\":112:281   */\n              swap3\n              swap2\n              pop\n              pop\n              jump\t// out\n                /* \"#utility.yul\":287:426   */\n            tag_32:\n                /* \"#utility.yul\":376:382   */\n              dup3\n                /* \"#utility.yul\":371:374   */\n              dup2\n                /* \"#utility.yul\":366:369   */\n              dup4\n                /* \"#utility.yul\":360:383   */\n              mcopy\n                /* \"#utility.yul\":417:418   */\n              0x00\n                /* \"#utility.yul\":408:414   */\n              dup4\n                /* \"#utility.yul\":403:406   */\n              dup4\n                /* \"#utility.yul\":399:415   */\n              add\n                /* \"#utility.yul\":392:419   */\n              mstore\n                /* \"#utility.yul\":287:426   */\n              pop\n              pop\n              pop\n              jump\t// out\n                /* \"#utility.yul\":432:534   */\n            tag_33:\n                /* \"#utility.yul\":473:479   */\n              0x00\n                /* \"#utility.yul\":524:526   */\n              0x1f\n                /* \"#utility.yul\":520:527   */\n              not\n                /* \"#utility.yul\":515:517   */\n              0x1f\n                /* \"#utility.yul\":508:513   */\n              dup4\n                /* \"#utility.yul\":504:518   */\n              add\n                /* \"#utility.yul\":500:528   */\n              and\n                /* \"#utility.yul\":490:528   */\n              swap1\n              pop\n                /* \"#utility.yul\":432:534   */\n              swap2\n              swap1\n              pop\n              jump\t// out\n                /* \"#utility.yul\":540:917   */\n            tag_34:\n                /* \"#utility.yul\":628:631   */\n              0x00\n                /* \"#utility.yul\":656:695   */\n              tag_47\n                /* \"#utility.yul\":689:694   */\n              dup3\n                /* \"#utility.yul\":656:695   */\n              tag_30\n              jump\t// in\n            tag_47:\n                /* \"#utility.yul\":711:782   */\n              tag_48\n                /* \"#utility.yul\":775:781   */\n              dup2\n                /* \"#utility.yul\":770:773   */\n              dup6\n                /* \"#utility.yul\":711:782   */\n              tag_31\n              jump\t// in\n            tag_48:\n                /* \"#utility.yul\":704:782   */\n              swap4\n              pop\n                /* \"#utility.yul\":791:856   */\n              tag_49\n                /* \"#utility.yul\":849:855   */\n              dup2\n                /* \"#utility.yul\":844:847   */\n              dup6\n                /* \"#utility.yul\":837:841   */\n              0x20\n                /* \"#utility.yul\":830:835   */\n              dup7\n                /* \"#utility.yul\":826:842   */\n              add\n                /* \"#utility.yul\":791:856   */\n              tag_32\n              jump\t// in\n            tag_49:\n                /* \"#utility.yul\":881:910   */\n              tag_50\n                /* \"#utility.yul\":903:909   */\n              dup2\n                /* \"#utility.yul\":881:910   */\n              tag_33\n              jump\t// in\n            tag_50:\n                /* \"#utility.yul\":876:879   */\n              dup5\n                /* \"#utility.yul\":872:911   */\n              add\n                /* \"#utility.yul\":865:911   */\n              swap2\n              pop\n                /* \"#utility.yul\":632:917   */\n              pop\n                /* \"#utility.yul\":540:917   */\n              swap3\n              swap2\n              pop\n              pop\n              jump\t// out\n                /* \"#utility.yul\":923:1236   */\n            tag_12:\n                /* \"#utility.yul\":1036:1040   */\n              0x00\n                /* \"#utility.yul\":1074:1076   */\n              0x20\n                /* \"#utility.yul\":1063:1072   */\n              dup3\n                /* \"#utility.yul\":1059:1077   */\n              add\n                /* \"#utility.yul\":1051:1077   */\n              swap1\n              pop\n                /* \"#utility.yul\":1123:1132   */\n              dup2\n                /* \"#utility.yul\":1117:1121   */\n              dup2\n                /* \"#utility.yul\":1113:1133   */\n              sub\n                /* \"#utility.yul\":1109:1110   */\n              0x00\n                /* \"#utility.yul\":1098:1107   */\n              dup4\n                /* \"#utility.yul\":1094:1111   */\n              add\n                /* \"#utility.yul\":1087:1134   */\n              mstore\n                /* \"#utility.yul\":1151:1229   */\n              tag_52\n                /* \"#utility.yul\":1224:1228   */\n              dup2\n                /* \"#utility.yul\":1215:1221   */\n              dup5\n                /* \"#utility.yul\":1151:1229   */\n              tag_34\n              jump\t// in\n            tag_52:\n                /* \"#utility.yul\":1143:1229   */\n              swap1\n              pop\n                /* \"#utility.yul\":923:1236   */\n              swap3\n              swap2\n              pop\n              pop\n              jump\t// out\n                /* \"#utility.yul\":1242:1319   */\n            tag_35:\n                /* \"#utility.yul\":1279:1286   */\n              0x00\n                /* \"#utility.yul\":1308:1313   */\n              dup2\n                /* \"#utility.yul\":1297:1313   */\n              swap1\n              pop\n                /* \"#utility.yul\":1242:1319   */\n              swap2\n              swap1\n              pop\n              jump\t// out\n                /* \"#utility.yul\":1325:1443   */\n            tag_36:\n                /* \"#utility.yul\":1412:1436   */\n              tag_55\n                /* \"#utility.yul\":1430:1435   */\n              dup2\n                /* \"#utility.yul\":1412:1436   */\n              tag_35\n              jump\t// in\n            tag_55:\n                /* \"#utility.yul\":1407:1410   */\n              dup3\n                /* \"#utility.yul\":1400:1437   */\n              mstore\n                /* \"#utility.yul\":1325:1443   */\n              pop\n              pop\n              jump\t// out\n                /* \"#utility.yul\":1449:1671   */\n            tag_17:\n                /* \"#utility.yul\":1542:1546   */\n              0x00\n                /* \"#utility.yul\":1580:1582   */\n              0x20\n                /* \"#utility.yul\":1569:1578   */\n              dup3\n                /* \"#utility.yul\":1565:1583   */\n              add\n                /* \"#utility.yul\":1557:1583   */\n              swap1\n              pop\n                /* \"#utility.yul\":1593:1664   */\n              tag_57\n                /* \"#utility.yul\":1661:1662   */\n              0x00\n                /* \"#utility.yul\":1650:1659   */\n              dup4\n                /* \"#utility.yul\":1646:1663   */\n              add\n                /* \"#utility.yul\":1637:1643   */\n              dup5\n                /* \"#utility.yul\":1593:1664   */\n              tag_36\n              jump\t// in\n            tag_57:\n                /* \"#utility.yul\":1449:1671   */\n              swap3\n              swap2\n              pop\n              pop\n              jump\t// out\n                /* \"#utility.yul\":1677:1803   */\n            tag_37:\n                /* \"#utility.yul\":1714:1721   */\n              0x00\n                /* \"#utility.yul\":1754:1796   */\n              0xffffffffffffffffffffffffffffffffffffffff\n                /* \"#utility.yul\":1747:1752   */\n              dup3\n                /* \"#utility.yul\":1743:1797   */\n              and\n                /* \"#utility.yul\":1732:1797   */\n              swap1\n              pop\n                /* \"#utility.yul\":1677:1803   */\n              swap2\n              swap1\n              pop\n              jump\t// out\n                /* \"#utility.yul\":1809:1905   */\n            tag_38:\n                /* \"#utility.yul\":1846:1853   */\n              0x00\n                /* \"#utility.yul\":1875:1899   */\n              tag_60\n                /* \"#utility.yul\":1893:1898   */\n              dup3\n                /* \"#utility.yul\":1875:1899   */\n              tag_37\n              jump\t// in\n            tag_60:\n                /* \"#utility.yul\":1864:1899   */\n              swap1\n              pop\n                /* \"#utility.yul\":1809:1905   */\n              swap2\n              swap1\n              pop\n              jump\t// out\n                /* \"#utility.yul\":1911:2029   */\n            tag_39:\n                /* \"#utility.yul\":1998:2022   */\n              tag_62\n                /* \"#utility.yul\":2016:2021   */\n              dup2\n                /* \"#utility.yul\":1998:2022   */\n              tag_38\n              jump\t// in\n            tag_62:\n                /* \"#utility.yul\":1993:1996   */\n              dup3\n                /* \"#utility.yul\":1986:2023   */\n              mstore\n                /* \"#utility.yul\":1911:2029   */\n              pop\n              pop\n              jump\t// out\n                /* \"#utility.yul\":2035:2257   */\n            tag_22:\n                /* \"#utility.yul\":2128:2132   */\n              0x00\n                /* \"#utility.yul\":2166:2168   */\n              0x20\n                /* \"#utility.yul\":2155:2164   */\n              dup3\n                /* \"#utility.yul\":2151:2169   */\n              add\n                /* \"#utility.yul\":2143:2169   */\n              swap1\n              pop\n                /* \"#utility.yul\":2179:2250   */\n              tag_64\n                /* \"#utility.yul\":2247:2248   */\n              0x00\n                /* \"#utility.yul\":2236:2245   */\n              dup4\n                /* \"#utility.yul\":2232:2249   */\n              add\n                /* \"#utility.yul\":2223:2229   */\n              dup5\n                /* \"#utility.yul\":2179:2250   */\n              tag_39\n              jump\t// in\n            tag_64:\n                /* \"#utility.yul\":2035:2257   */\n              swap3\n              swap2\n              pop\n              pop\n              jump\t// out\n                /* \"#utility.yul\":2263:2443   */\n            tag_40:\n                /* \"#utility.yul\":2311:2388   */\n              0x4e487b7100000000000000000000000000000000000000000000000000000000\n                /* \"#utility.yul\":2308:2309   */\n              0x00\n                /* \"#utility.yul\":2301:2389   */\n              mstore\n                /* \"#utility.yul\":2408:2412   */\n              0x22\n                /* \"#utility.yul\":2405:2406   */\n              0x04\n                /* \"#utility.yul\":2398:2413   */\n              mstore\n                /* \"#utility.yul\":2432:2436   */\n              0x24\n                /* \"#utility.yul\":2429:2430   */\n              0x00\n                /* \"#utility.yul\":2422:2437   */\n              revert\n                /* \"#utility.yul\":2449:2769   */\n            tag_24:\n                /* \"#utility.yul\":2493:2499   */\n              0x00\n                /* \"#utility.yul\":2530:2531   */\n              0x02\n                /* \"#utility.yul\":2524:2528   */\n              dup3\n                /* \"#utility.yul\":2520:2532   */\n              div\n                /* \"#utility.yul\":2510:2532   */\n              swap1\n              pop\n                /* \"#utility.yul\":2577:2578   */\n              0x01\n                /* \"#utility.yul\":2571:2575   */\n              dup3\n                /* \"#utility.yul\":2567:2579   */\n              and\n                /* \"#utility.yul\":2598:2616   */\n              dup1\n                /* \"#utility.yul\":2588:2669   */\n              tag_67\n              jumpi\n                /* \"#utility.yul\":2654:2658   */\n              0x7f\n                /* \"#utility.yul\":2646:2652   */\n              dup3\n                /* \"#utility.yul\":2642:2659   */\n              and\n                /* \"#utility.yul\":2632:2659   */\n              swap2\n              pop\n                /* \"#utility.yul\":2588:2669   */\n            tag_67:\n                /* \"#utility.yul\":2716:2718   */\n              0x20\n                /* \"#utility.yul\":2708:2714   */\n              dup3\n                /* \"#utility.yul\":2705:2719   */\n              lt\n                /* \"#utility.yul\":2685:2703   */\n              dup2\n                /* \"#utility.yul\":2682:2720   */\n              sub\n                /* \"#utility.yul\":2679:2763   */\n              tag_68\n              jumpi\n                /* \"#utility.yul\":2735:2753   */\n              tag_69\n              tag_40\n              jump\t// in\n            tag_69:\n                /* \"#utility.yul\":2679:2763   */\n            tag_68:\n                /* \"#utility.yul\":2500:2769   */\n              pop\n                /* \"#utility.yul\":2449:2769   */\n              swap2\n              swap1\n              pop\n              jump\t// out\n\n            auxdata: 0xa2646970667358221220d78c4edae84f373fd572717e2a56557e71a2aca7774fb4aa9f772cb789e5c5fa64736f6c634300081e0033\n        }\n    }\n\n    auxdata: 0xa2646970667358221220673549d4910a636a65882a08529190d79ea7e17bb5b276f701dbb18e85b9413f64736f6c634300081e0033\n}\n",
				"bytecode": {
					"linkReferences": {},
					"object": "6080604052348015600e575f5ffd5b506110208061001c5f395ff3fe60806040526004361061003e575f3560e01c80631c385d57146100425780639ad1ee1014610072578063aa9a068f146100ae578063c9d47df4146100d8575b5f5ffd5b61005c60048036038101906100579190610470565b610108565b60405161006991906104f6565b60405180910390f35b34801561007d575f5ffd5b5061009860048036038101906100939190610542565b6101aa565b6040516100a591906104f6565b60405180910390f35b3480156100b9575f5ffd5b506100c26101e4565b6040516100cf9190610624565b60405180910390f35b6100f260048036038101906100ed9190610677565b61026e565b6040516100ff91906104f6565b60405180910390f35b5f5f34338460405161011990610316565b610124929190610731565b6040518091039082f090508015801561013f573d5f5f3e3d5ffd5b5090505f81908060018154018082558091505060019003905f5260205f20015f9091909190916101000a81548173ffffffffffffffffffffffffffffffffffffffff021916908373ffffffffffffffffffffffffffffffffffffffff16021790555080915050919050565b5f81815481106101b8575f80fd5b905f5260205f20015f915054906101000a900473ffffffffffffffffffffffffffffffffffffffff1681565b60605f80548060200260200160405190810160405280929190818152602001828054801561026457602002820191905f5260205f20905b815f9054906101000a900473ffffffffffffffffffffffffffffffffffffffff1673ffffffffffffffffffffffffffffffffffffffff168152602001906001019080831161021b575b5050505050905090565b5f5f8234338660405161028090610316565b61028b929190610731565b82906040518091039083f590509050801580156102aa573d5f5f3e3d5ffd5b5090505f81908060018154018082558091505060019003905f5260205f20015f9091909190916101000a81548173ffffffffffffffffffffffffffffffffffffffff021916908373ffffffffffffffffffffffffffffffffffffffff1602179055508091505092915050565b61088b8061076083390190565b5f604051905090565b5f5ffd5b5f5ffd5b5f5ffd5b5f5ffd5b5f601f19601f8301169050919050565b7f4e487b71000000000000000000000000000000000000000000000000000000005f52604160045260245ffd5b6103828261033c565b810181811067ffffffffffffffff821117156103a1576103a061034c565b5b80604052505050565b5f6103b3610323565b90506103bf8282610379565b919050565b5f67ffffffffffffffff8211156103de576103dd61034c565b5b6103e78261033c565b9050602081019050919050565b828183375f83830152505050565b5f61041461040f846103c4565b6103aa565b9050828152602081018484840111156104305761042f610338565b5b61043b8482856103f4565b509392505050565b5f82601f83011261045757610456610334565b5b8135610467848260208601610402565b91505092915050565b5f602082840312156104855761048461032c565b5b5f82013567ffffffffffffffff8111156104a2576104a1610330565b5b6104ae84828501610443565b91505092915050565b5f73ffffffffffffffffffffffffffffffffffffffff82169050919050565b5f6104e0826104b7565b9050919050565b6104f0816104d6565b82525050565b5f6020820190506105095f8301846104e7565b92915050565b5f819050919050565b6105218161050f565b811461052b575f5ffd5b50565b5f8135905061053c81610518565b92915050565b5f602082840312156105575761055661032c565b5b5f6105648482850161052e565b91505092915050565b5f81519050919050565b5f82825260208201905092915050565b5f819050602082019050919050565b61059f816104d6565b82525050565b5f6105b08383610596565b60208301905092915050565b5f602082019050919050565b5f6105d28261056d565b6105dc8185610577565b93506105e783610587565b805f5b838110156106175781516105fe88826105a5565b9750610609836105bc565b9250506001810190506105ea565b5085935050505092915050565b5f6020820190508181035f83015261063c81846105c8565b905092915050565b5f819050919050565b61065681610644565b8114610660575f5ffd5b50565b5f813590506106718161064d565b92915050565b5f5f6040838503121561068d5761068c61032c565b5b5f83013567ffffffffffffffff8111156106aa576106a9610330565b5b6106b685828601610443565b92505060206106c785828601610663565b9150509250929050565b5f81519050919050565b5f82825260208201905092915050565b8281835e5f83830152505050565b5f610703826106d1565b61070d81856106db565b935061071d8185602086016106eb565b6107268161033c565b840191505092915050565b5f6040820190506107445f8301856104e7565b818103602083015261075681846106f9565b9050939250505056fe608060405260405161088b38038061088b83398181016040528101906100259190610222565b815f5f6101000a81548173ffffffffffffffffffffffffffffffffffffffff021916908373ffffffffffffffffffffffffffffffffffffffff1602179055508060019081610073919061048c565b50505061055b565b5f604051905090565b5f5ffd5b5f5ffd5b5f73ffffffffffffffffffffffffffffffffffffffff82169050919050565b5f6100b58261008c565b9050919050565b6100c5816100ab565b81146100cf575f5ffd5b50565b5f815190506100e0816100bc565b92915050565b5f5ffd5b5f5ffd5b5f601f19601f8301169050919050565b7f4e487b71000000000000000000000000000000000000000000000000000000005f52604160045260245ffd5b610134826100ee565b810181811067ffffffffffffffff82111715610153576101526100fe565b5b80604052505050565b5f61016561007b565b9050610171828261012b565b919050565b5f67ffffffffffffffff8211156101905761018f6100fe565b5b610199826100ee565b9050602081019050919050565b8281835e5f83830152505050565b5f6101c66101c184610176565b61015c565b9050828152602081018484840111156101e2576101e16100ea565b5b6101ed8482856101a6565b509392505050565b5f82601f830112610209576102086100e6565b5b81516102198482602086016101b4565b91505092915050565b5f5f6040838503121561023857610237610084565b5b5f610245858286016100d2565b925050602083015167ffffffffffffffff81111561026657610265610088565b5b610272858286016101f5565b9150509250929050565b5f81519050919050565b7f4e487b71000000000000000000000000000000000000000000000000000000005f52602260045260245ffd5b5f60028204905060018216806102ca57607f821691505b6020821081036102dd576102dc610286565b5b50919050565b5f819050815f5260205f209050919050565b5f6020601f8301049050919050565b5f82821b905092915050565b5f6008830261033f7fffffffffffffffffffffffffffffffffffffffffffffffffffffffffffffffff82610304565b6103498683610304565b95508019841693508086168417925050509392505050565b5f819050919050565b5f819050919050565b5f61038d61038861038384610361565b61036a565b610361565b9050919050565b5f819050919050565b6103a683610373565b6103ba6103b282610394565b848454610310565b825550505050565b5f5f905090565b6103d16103c2565b6103dc81848461039d565b505050565b5b818110156103ff576103f45f826103c9565b6001810190506103e2565b5050565b601f82111561044457610415816102e3565b61041e846102f5565b8101602085101561042d578190505b610441610439856102f5565b8301826103e1565b50505b505050565b5f82821c905092915050565b5f6104645f1984600802610449565b1980831691505092915050565b5f61047c8383610455565b9150826002028217905092915050565b6104958261027c565b67ffffffffffffffff8111156104ae576104ad6100fe565b5b6104b882546102b3565b6104c3828285610403565b5f60209050601f8311600181146104f4575f84156104e2578287015190505b6104ec8582610471565b865550610553565b601f198416610502866102e3565b5f5b8281101561052957848901518255600182019150602085019450602081019050610504565b868310156105465784890151610542601f891682610455565b8355505b6001600288020188555050505b505050505050565b610323806105685f395ff3fe608060405260043610610037575f3560e01c806306fdde031461004257806312065fe01461006c5780638da5cb5b146100965761003e565b3661003e57005b5f5ffd5b34801561004d575f5ffd5b506100566100c0565b60405161006391906101e7565b60405180910390f35b348015610077575f5ffd5b5061008061014c565b60405161008d919061021f565b60405180910390f35b3480156100a1575f5ffd5b506100aa610153565b6040516100b79190610277565b60405180910390f35b600180546100cd906102bd565b80601f01602080910402602001604051908101604052809291908181526020018280546100f9906102bd565b80156101445780601f1061011b57610100808354040283529160200191610144565b820191905f5260205f20905b81548152906001019060200180831161012757829003601f168201915b505050505081565b5f47905090565b5f5f9054906101000a900473ffffffffffffffffffffffffffffffffffffffff1681565b5f81519050919050565b5f82825260208201905092915050565b8281835e5f83830152505050565b5f601f19601f8301169050919050565b5f6101b982610177565b6101c38185610181565b93506101d3818560208601610191565b6101dc8161019f565b840191505092915050565b5f6020820190508181035f8301526101ff81846101af565b905092915050565b5f819050919050565b61021981610207565b82525050565b5f6020820190506102325f830184610210565b92915050565b5f73ffffffffffffffffffffffffffffffffffffffff82169050919050565b5f61026182610238565b9050919050565b61027181610257565b82525050565b5f60208201905061028a5f830184610268565b92915050565b7f4e487b71000000000000000000000000000000000000000000000000000000005f52602260045260245ffd5b5f60028204905060018216806102d457607f821691505b6020821081036102e7576102e6610290565b5b5091905056fea2646970667358221220d78c4edae84f373fd572717e2a56557e71a2aca7774fb4aa9f772cb789e5c5fa64736f6c634300081e0033a2646970667358221220673549d4910a636a65882a08529190d79ea7e17bb5b276f701dbb18e85b9413f64736f6c634300081e0033",
					"opcodes": "PUSH1 0x80 PUSH1 0x40 MSTORE CALLVALUE DUP1 ISZERO PUSH1 0xE JUMPI PUSH0 PUSH0 REVERT JUMPDEST POP PUSH2 0x1020 DUP1 PUSH2 0x1C PUSH0 CODECOPY PUSH0 RETURN INVALID PUSH1 0x80 PUSH1 0x40 MSTORE PUSH1 0x4 CALLDATASIZE LT PUSH2 0x3E JUMPI PUSH0 CALLDATALOAD PUSH1 0xE0 SHR DUP1 PUSH4 0x1C385D57 EQ PUSH2 0x42 JUMPI DUP1 PUSH4 0x9AD1EE10 EQ PUSH2 0x72 JUMPI DUP1 PUSH4 0xAA9A068F EQ PUSH2 0xAE JUMPI DUP1 PUSH4 0xC9D47DF4 EQ PUSH2 0xD8 JUMPI JUMPDEST PUSH0 PUSH0 REVERT JUMPDEST PUSH2 0x5C PUSH1 0x4 DUP1 CALLDATASIZE SUB DUP2 ADD SWAP1 PUSH2 0x57 SWAP2 SWAP1 PUSH2 0x470 JUMP JUMPDEST PUSH2 0x108 JUMP JUMPDEST PUSH1 0x40 MLOAD PUSH2 0x69 SWAP2 SWAP1 PUSH2 0x4F6 JUMP JUMPDEST PUSH1 0x40 MLOAD DUP1 SWAP2 SUB SWAP1 RETURN JUMPDEST CALLVALUE DUP1 ISZERO PUSH2 0x7D JUMPI PUSH0 PUSH0 REVERT JUMPDEST POP PUSH2 0x98 PUSH1 0x4 DUP1 CALLDATASIZE SUB DUP2 ADD SWAP1 PUSH2 0x93 SWAP2 SWAP1 PUSH2 0x542 JUMP JUMPDEST PUSH2 0x1AA JUMP JUMPDEST PUSH1 0x40 MLOAD PUSH2 0xA5 SWAP2 SWAP1 PUSH2 0x4F6 JUMP JUMPDEST PUSH1 0x40 MLOAD DUP1 SWAP2 SUB SWAP1 RETURN JUMPDEST CALLVALUE DUP1 ISZERO PUSH2 0xB9 JUMPI PUSH0 PUSH0 REVERT JUMPDEST POP PUSH2 0xC2 PUSH2 0x1E4 JUMP JUMPDEST PUSH1 0x40 MLOAD PUSH2 0xCF SWAP2 SWAP1 PUSH2 0x624 JUMP JUMPDEST PUSH1 0x40 MLOAD DUP1 SWAP2 SUB SWAP1 RETURN JUMPDEST PUSH2 0xF2 PUSH1 0x4 DUP1 CALLDATASIZE SUB DUP2 ADD SWAP1 PUSH2 0xED SWAP2 SWAP1 PUSH2 0x677 JUMP JUMPDEST PUSH2 0x26E JUMP JUMPDEST PUSH1 0x40 MLOAD PUSH2 0xFF SWAP2 SWAP1 PUSH2 0x4F6 JUMP JUMPDEST PUSH1 0x40 MLOAD DUP1 SWAP2 SUB SWAP1 RETURN JUMPDEST PUSH0 PUSH0 CALLVALUE CALLER DUP5 PUSH1 0x40 MLOAD PUSH2 0x119 SWAP1 PUSH2 0x316 JUMP JUMPDEST PUSH2 0x124 SWAP3 SWAP2 SWAP1 PUSH2 0x731 JUMP JUMPDEST PUSH1 0x40 MLOAD DUP1 SWAP2 SUB SWAP1 DUP3 CREATE SWAP1 POP DUP1 ISZERO DUP1 ISZERO PUSH2 0x13F JUMPI RETURNDATASIZE PUSH0 PUSH0 RETURNDATACOPY RETURNDATASIZE PUSH0 REVERT JUMPDEST POP SWAP1 POP PUSH0 DUP2 SWAP1 DUP1 PUSH1 0x1 DUP2 SLOAD ADD DUP1 DUP3 SSTORE DUP1 SWAP2 POP POP PUSH1 0x1 SWAP1 SUB SWAP1 PUSH0 MSTORE PUSH1 0x20 PUSH0 KECCAK256 ADD PUSH0 SWAP1 SWAP2 SWAP1 SWAP2 SWAP1 SWAP2 PUSH2 0x100 EXP DUP2 SLOAD DUP2 PUSH20 0xFFFFFFFFFFFFFFFFFFFFFFFFFFFFFFFFFFFFFFFF MUL NOT AND SWAP1 DUP4 PUSH20 0xFFFFFFFFFFFFFFFFFFFFFFFFFFFFFFFFFFFFFFFF AND MUL OR SWAP1 SSTORE POP DUP1 SWAP2 POP POP SWAP2 SWAP1 POP JUMP JUMPDEST PUSH0 DUP2 DUP2 SLOAD DUP2 LT PUSH2 0x1B8 JUMPI PUSH0 DUP1 REVERT JUMPDEST SWAP1 PUSH0 MSTORE PUSH1 0x20 PUSH0 KECCAK256 ADD PUSH0 SWAP2 POP SLOAD SWAP1 PUSH2 0x100 EXP SWAP1 DIV PUSH20 0xFFFFFFFFFFFFFFFFFFFFFFFFFFFFFFFFFFFFFFFF AND DUP2 JUMP JUMPDEST PUSH1 0x60 PUSH0 DUP1 SLOAD DUP1 PUSH1 0x20 MUL PUSH1 0x20 ADD PUSH1 0x40 MLOAD SWAP1 DUP2 ADD PUSH1 0x40 MSTORE DUP1 SWAP3 SWAP2 SWAP1 DUP2 DUP2 MSTORE PUSH1 0x20 ADD DUP3 DUP1 SLOAD DUP1 ISZERO PUSH2 0x264 JUMPI PUSH1 0x20 MUL DUP3 ADD SWAP2 SWAP1 PUSH0 MSTORE PUSH1 0x20 PUSH0 KECCAK256 SWAP1 JUMPDEST DUP2 PUSH0 SWAP1 SLOAD SWAP1 PUSH2 0x100 EXP SWAP1 DIV PUSH20 0xFFFFFFFFFFFFFFFFFFFFFFFFFFFFFFFFFFFFFFFF AND PUSH20 0xFFFFFFFFFFFFFFFFFFFFFFFFFFFFFFFFFFFFFFFF AND DUP2 MSTORE PUSH1 0x20 ADD SWAP1 PUSH1 0x1 ADD SWAP1 DUP1 DUP4 GT PUSH2 0x21B JUMPI JUMPDEST POP POP POP POP POP SWAP1 POP SWAP1 JUMP JUMPDEST PUSH0 PUSH0 DUP3 CALLVALUE CALLER DUP7 PUSH1 0x40 MLOAD PUSH2 0x280 SWAP1 PUSH2 0x316 JUMP JUMPDEST PUSH2 0x28B SWAP3 SWAP2 SWAP1 PUSH2 0x731 JUMP JUMPDEST DUP3 SWAP1 PUSH1 0x40 MLOAD DUP1 SWAP2 SUB SWAP1 DUP4 CREATE2 SWAP1 POP SWAP1 POP DUP1 ISZERO DUP1 ISZERO PUSH2 0x2AA JUMPI RETURNDATASIZE PUSH0 PUSH0 RETURNDATACOPY RETURNDATASIZE PUSH0 REVERT JUMPDEST POP SWAP1 POP PUSH0 DUP2 SWAP1 DUP1 PUSH1 0x1 DUP2 SLOAD ADD DUP1 DUP3 SSTORE DUP1 SWAP2 POP POP PUSH1 0x1 SWAP1 SUB SWAP1 PUSH0 MSTORE PUSH1 0x20 PUSH0 KECCAK256 ADD PUSH0 SWAP1 SWAP2 SWAP1 SWAP2 SWAP1 SWAP2 PUSH2 0x100 EXP DUP2 SLOAD DUP2 PUSH20 0xFFFFFFFFFFFFFFFFFFFFFFFFFFFFFFFFFFFFFFFF MUL NOT AND SWAP1 DUP4 PUSH20 0xFFFFFFFFFFFFFFFFFFFFFFFFFFFFFFFFFFFFFFFF AND MUL OR SWAP1 SSTORE POP DUP1 SWAP2 POP POP SWAP3 SWAP2 POP POP JUMP JUMPDEST PUSH2 0x88B DUP1 PUSH2 0x760 DUP4 CODECOPY ADD SWAP1 JUMP JUMPDEST PUSH0 PUSH1 0x40 MLOAD SWAP1 POP SWAP1 JUMP JUMPDEST PUSH0 PUSH0 REVERT JUMPDEST PUSH0 PUSH0 REVERT JUMPDEST PUSH0 PUSH0 REVERT JUMPDEST PUSH0 PUSH0 REVERT JUMPDEST PUSH0 PUSH1 0x1F NOT PUSH1 0x1F DUP4 ADD AND SWAP1 POP SWAP2 SWAP1 POP JUMP JUMPDEST PUSH32 0x4E487B7100000000000000000000000000000000000000000000000000000000 PUSH0 MSTORE PUSH1 0x41 PUSH1 0x4 MSTORE PUSH1 0x24 PUSH0 REVERT JUMPDEST PUSH2 0x382 DUP3 PUSH2 0x33C JUMP JUMPDEST DUP2 ADD DUP2 DUP2 LT PUSH8 0xFFFFFFFFFFFFFFFF DUP3 GT OR ISZERO PUSH2 0x3A1 JUMPI PUSH2 0x3A0 PUSH2 0x34C JUMP JUMPDEST JUMPDEST DUP1 PUSH1 0x40 MSTORE POP POP POP JUMP JUMPDEST PUSH0 PUSH2 0x3B3 PUSH2 0x323 JUMP JUMPDEST SWAP1 POP PUSH2 0x3BF DUP3 DUP3 PUSH2 0x379 JUMP JUMPDEST SWAP2 SWAP1 POP JUMP JUMPDEST PUSH0 PUSH8 0xFFFFFFFFFFFFFFFF DUP3 GT ISZERO PUSH2 0x3DE JUMPI PUSH2 0x3DD PUSH2 0x34C JUMP JUMPDEST JUMPDEST PUSH2 0x3E7 DUP3 PUSH2 0x33C JUMP JUMPDEST SWAP1 POP PUSH1 0x20 DUP2 ADD SWAP1 POP SWAP2 SWAP1 POP JUMP JUMPDEST DUP3 DUP2 DUP4 CALLDATACOPY PUSH0 DUP4 DUP4 ADD MSTORE POP POP POP JUMP JUMPDEST PUSH0 PUSH2 0x414 PUSH2 0x40F DUP5 PUSH2 0x3C4 JUMP JUMPDEST PUSH2 0x3AA JUMP JUMPDEST SWAP1 POP DUP3 DUP2 MSTORE PUSH1 0x20 DUP2 ADD DUP5 DUP5 DUP5 ADD GT ISZERO PUSH2 0x430 JUMPI PUSH2 0x42F PUSH2 0x338 JUMP JUMPDEST JUMPDEST PUSH2 0x43B DUP5 DUP3 DUP6 PUSH2 0x3F4 JUMP JUMPDEST POP SWAP4 SWAP3 POP POP POP JUMP JUMPDEST PUSH0 DUP3 PUSH1 0x1F DUP4 ADD SLT PUSH2 0x457 JUMPI PUSH2 0x456 PUSH2 0x334 JUMP JUMPDEST JUMPDEST DUP2 CALLDATALOAD PUSH2 0x467 DUP5 DUP3 PUSH1 0x20 DUP7 ADD PUSH2 0x402 JUMP JUMPDEST SWAP2 POP POP SWAP3 SWAP2 POP POP JUMP JUMPDEST PUSH0 PUSH1 0x20 DUP3 DUP5 SUB SLT ISZERO PUSH2 0x485 JUMPI PUSH2 0x484 PUSH2 0x32C JUMP JUMPDEST JUMPDEST PUSH0 DUP3 ADD CALLDATALOAD PUSH8 0xFFFFFFFFFFFFFFFF DUP2 GT ISZERO PUSH2 0x4A2 JUMPI PUSH2 0x4A1 PUSH2 0x330 JUMP JUMPDEST JUMPDEST PUSH2 0x4AE DUP5 DUP3 DUP6 ADD PUSH2 0x443 JUMP JUMPDEST SWAP2 POP POP SWAP3 SWAP2 POP POP JUMP JUMPDEST PUSH0 PUSH20 0xFFFFFFFFFFFFFFFFFFFFFFFFFFFFFFFFFFFFFFFF DUP3 AND SWAP1 POP SWAP2 SWAP1 POP JUMP JUMPDEST PUSH0 PUSH2 0x4E0 DUP3 PUSH2 0x4B7 JUMP JUMPDEST SWAP1 POP SWAP2 SWAP1 POP JUMP JUMPDEST PUSH2 0x4F0 DUP2 PUSH2 0x4D6 JUMP JUMPDEST DUP3 MSTORE POP POP JUMP JUMPDEST PUSH0 PUSH1 0x20 DUP3 ADD SWAP1 POP PUSH2 0x509 PUSH0 DUP4 ADD DUP5 PUSH2 0x4E7 JUMP JUMPDEST SWAP3 SWAP2 POP POP JUMP JUMPDEST PUSH0 DUP2 SWAP1 POP SWAP2 SWAP1 POP JUMP JUMPDEST PUSH2 0x521 DUP2 PUSH2 0x50F JUMP JUMPDEST DUP2 EQ PUSH2 0x52B JUMPI PUSH0 PUSH0 REVERT JUMPDEST POP JUMP JUMPDEST PUSH0 DUP2 CALLDATALOAD SWAP1 POP PUSH2 0x53C DUP2 PUSH2 0x518 JUMP JUMPDEST SWAP3 SWAP2 POP POP JUMP JUMPDEST PUSH0 PUSH1 0x20 DUP3 DUP5 SUB SLT ISZERO PUSH2 0x557 JUMPI PUSH2 0x556 PUSH2 0x32C JUMP JUMPDEST JUMPDEST PUSH0 PUSH2 0x564 DUP5 DUP3 DUP6 ADD PUSH2 0x52E JUMP JUMPDEST SWAP2 POP POP SWAP3 SWAP2 POP POP JUMP JUMPDEST PUSH0 DUP2 MLOAD SWAP1 POP SWAP2 SWAP1 POP JUMP JUMPDEST PUSH0 DUP3 DUP3 MSTORE PUSH1 0x20 DUP3 ADD SWAP1 POP SWAP3 SWAP2 POP POP JUMP JUMPDEST PUSH0 DUP2 SWAP1 POP PUSH1 0x20 DUP3 ADD SWAP1 POP SWAP2 SWAP1 POP JUMP JUMPDEST PUSH2 0x59F DUP2 PUSH2 0x4D6 JUMP JUMPDEST DUP3 MSTORE POP POP JUMP JUMPDEST PUSH0 PUSH2 0x5B0 DUP4 DUP4 PUSH2 0x596 JUMP JUMPDEST PUSH1 0x20 DUP4 ADD SWAP1 POP SWAP3 SWAP2 POP POP JUMP JUMPDEST PUSH0 PUSH1 0x20 DUP3 ADD SWAP1 POP SWAP2 SWAP1 POP JUMP JUMPDEST PUSH0 PUSH2 0x5D2 DUP3 PUSH2 0x56D JUMP JUMPDEST PUSH2 0x5DC DUP2 DUP6 PUSH2 0x577 JUMP JUMPDEST SWAP4 POP PUSH2 0x5E7 DUP4 PUSH2 0x587 JUMP JUMPDEST DUP1 PUSH0 JUMPDEST DUP4 DUP2 LT ISZERO PUSH2 0x617 JUMPI DUP2 MLOAD PUSH2 0x5FE DUP9 DUP3 PUSH2 0x5A5 JUMP JUMPDEST SWAP8 POP PUSH2 0x609 DUP4 PUSH2 0x5BC JUMP JUMPDEST SWAP3 POP POP PUSH1 0x1 DUP2 ADD SWAP1 POP PUSH2 0x5EA JUMP JUMPDEST POP DUP6 SWAP4 POP POP POP POP SWAP3 SWAP2 POP POP JUMP JUMPDEST PUSH0 PUSH1 0x20 DUP3 ADD SWAP1 POP DUP2 DUP2 SUB PUSH0 DUP4 ADD MSTORE PUSH2 0x63C DUP2 DUP5 PUSH2 0x5C8 JUMP JUMPDEST SWAP1 POP SWAP3 SWAP2 POP POP JUMP JUMPDEST PUSH0 DUP2 SWAP1 POP SWAP2 SWAP1 POP JUMP JUMPDEST PUSH2 0x656 DUP2 PUSH2 0x644 JUMP JUMPDEST DUP2 EQ PUSH2 0x660 JUMPI PUSH0 PUSH0 REVERT JUMPDEST POP JUMP JUMPDEST PUSH0 DUP2 CALLDATALOAD SWAP1 POP PUSH2 0x671 DUP2 PUSH2 0x64D JUMP JUMPDEST SWAP3 SWAP2 POP POP JUMP JUMPDEST PUSH0 PUSH0 PUSH1 0x40 DUP4 DUP6 SUB SLT ISZERO PUSH2 0x68D JUMPI PUSH2 0x68C PUSH2 0x32C JUMP JUMPDEST JUMPDEST PUSH0 DUP4 ADD CALLDATALOAD PUSH8 0xFFFFFFFFFFFFFFFF DUP2 GT ISZERO PUSH2 0x6AA JUMPI PUSH2 0x6A9 PUSH2 0x330 JUMP JUMPDEST JUMPDEST PUSH2 0x6B6 DUP6 DUP3 DUP7 ADD PUSH2 0x443 JUMP JUMPDEST SWAP3 POP POP PUSH1 0x20 PUSH2 0x6C7 DUP6 DUP3 DUP7 ADD PUSH2 0x663 JUMP JUMPDEST SWAP2 POP POP SWAP3 POP SWAP3 SWAP1 POP JUMP JUMPDEST PUSH0 DUP2 MLOAD SWAP1 POP SWAP2 SWAP1 POP JUMP JUMPDEST PUSH0 DUP3 DUP3 MSTORE PUSH1 0x20 DUP3 ADD SWAP1 POP SWAP3 SWAP2 POP POP JUMP JUMPDEST DUP3 DUP2 DUP4 MCOPY PUSH0 DUP4 DUP4 ADD MSTORE POP POP POP JUMP JUMPDEST PUSH0 PUSH2 0x703 DUP3 PUSH2 0x6D1 JUMP JUMPDEST PUSH2 0x70D DUP2 DUP6 PUSH2 0x6DB JUMP JUMPDEST SWAP4 POP PUSH2 0x71D DUP2 DUP6 PUSH1 0x20 DUP7 ADD PUSH2 0x6EB JUMP JUMPDEST PUSH2 0x726 DUP2 PUSH2 0x33C JUMP JUMPDEST DUP5 ADD SWAP2 POP POP SWAP3 SWAP2 POP POP JUMP JUMPDEST PUSH0 PUSH1 0x40 DUP3 ADD SWAP1 POP PUSH2 0x744 PUSH0 DUP4 ADD DUP6 PUSH2 0x4E7 JUMP JUMPDEST DUP2 DUP2 SUB PUSH1 0x20 DUP4 ADD MSTORE PUSH2 0x756 DUP2 DUP5 PUSH2 0x6F9 JUMP JUMPDEST SWAP1 POP SWAP4 SWAP3 POP POP POP JUMP INVALID PUSH1 0x80 PUSH1 0x40 MSTORE PUSH1 0x40 MLOAD PUSH2 0x88B CODESIZE SUB DUP1 PUSH2 0x88B DUP4 CODECOPY DUP2 DUP2 ADD PUSH1 0x40 MSTORE DUP2 ADD SWAP1 PUSH2 0x25 SWAP2 SWAP1 PUSH2 0x222 JUMP JUMPDEST DUP2 PUSH0 PUSH0 PUSH2 0x100 EXP DUP2 SLOAD DUP2 PUSH20 0xFFFFFFFFFFFFFFFFFFFFFFFFFFFFFFFFFFFFFFFF MUL NOT AND SWAP1 DUP4 PUSH20 0xFFFFFFFFFFFFFFFFFFFFFFFFFFFFFFFFFFFFFFFF AND MUL OR SWAP1 SSTORE POP DUP1 PUSH1 0x1 SWAP1 DUP2 PUSH2 0x73 SWAP2 SWAP1 PUSH2 0x48C JUMP JUMPDEST POP POP POP PUSH2 0x55B JUMP JUMPDEST PUSH0 PUSH1 0x40 MLOAD SWAP1 POP SWAP1 JUMP JUMPDEST PUSH0 PUSH0 REVERT JUMPDEST PUSH0 PUSH0 REVERT JUMPDEST PUSH0 PUSH20 0xFFFFFFFFFFFFFFFFFFFFFFFFFFFFFFFFFFFFFFFF DUP3 AND SWAP1 POP SWAP2 SWAP1 POP JUMP JUMPDEST PUSH0 PUSH2 0xB5 DUP3 PUSH2 0x8C JUMP JUMPDEST SWAP1 POP SWAP2 SWAP1 POP JUMP JUMPDEST PUSH2 0xC5 DUP2 PUSH2 0xAB JUMP JUMPDEST DUP2 EQ PUSH2 0xCF JUMPI PUSH0 PUSH0 REVERT JUMPDEST POP JUMP JUMPDEST PUSH0 DUP2 MLOAD SWAP1 POP PUSH2 0xE0 DUP2 PUSH2 0xBC JUMP JUMPDEST SWAP3 SWAP2 POP POP JUMP JUMPDEST PUSH0 PUSH0 REVERT JUMPDEST PUSH0 PUSH0 REVERT JUMPDEST PUSH0 PUSH1 0x1F NOT PUSH1 0x1F DUP4 ADD AND SWAP1 POP SWAP2 SWAP1 POP JUMP JUMPDEST PUSH32 0x4E487B7100000000000000000000000000000000000000000000000000000000 PUSH0 MSTORE PUSH1 0x41 PUSH1 0x4 MSTORE PUSH1 0x24 PUSH0 REVERT JUMPDEST PUSH2 0x134 DUP3 PUSH2 0xEE JUMP JUMPDEST DUP2 ADD DUP2 DUP2 LT PUSH8 0xFFFFFFFFFFFFFFFF DUP3 GT OR ISZERO PUSH2 0x153 JUMPI PUSH2 0x152 PUSH2 0xFE JUMP JUMPDEST JUMPDEST DUP1 PUSH1 0x40 MSTORE POP POP POP JUMP JUMPDEST PUSH0 PUSH2 0x165 PUSH2 0x7B JUMP JUMPDEST SWAP1 POP PUSH2 0x171 DUP3 DUP3 PUSH2 0x12B JUMP JUMPDEST SWAP2 SWAP1 POP JUMP JUMPDEST PUSH0 PUSH8 0xFFFFFFFFFFFFFFFF DUP3 GT ISZERO PUSH2 0x190 JUMPI PUSH2 0x18F PUSH2 0xFE JUMP JUMPDEST JUMPDEST PUSH2 0x199 DUP3 PUSH2 0xEE JUMP JUMPDEST SWAP1 POP PUSH1 0x20 DUP2 ADD SWAP1 POP SWAP2 SWAP1 POP JUMP JUMPDEST DUP3 DUP2 DUP4 MCOPY PUSH0 DUP4 DUP4 ADD MSTORE POP POP POP JUMP JUMPDEST PUSH0 PUSH2 0x1C6 PUSH2 0x1C1 DUP5 PUSH2 0x176 JUMP JUMPDEST PUSH2 0x15C JUMP JUMPDEST SWAP1 POP DUP3 DUP2 MSTORE PUSH1 0x20 DUP2 ADD DUP5 DUP5 DUP5 ADD GT ISZERO PUSH2 0x1E2 JUMPI PUSH2 0x1E1 PUSH2 0xEA JUMP JUMPDEST JUMPDEST PUSH2 0x1ED DUP5 DUP3 DUP6 PUSH2 0x1A6 JUMP JUMPDEST POP SWAP4 SWAP3 POP POP POP JUMP JUMPDEST PUSH0 DUP3 PUSH1 0x1F DUP4 ADD SLT PUSH2 0x209 JUMPI PUSH2 0x208 PUSH2 0xE6 JUMP JUMPDEST JUMPDEST DUP2 MLOAD PUSH2 0x219 DUP5 DUP3 PUSH1 0x20 DUP7 ADD PUSH2 0x1B4 JUMP JUMPDEST SWAP2 POP POP SWAP3 SWAP2 POP POP JUMP JUMPDEST PUSH0 PUSH0 PUSH1 0x40 DUP4 DUP6 SUB SLT ISZERO PUSH2 0x238 JUMPI PUSH2 0x237 PUSH2 0x84 JUMP JUMPDEST JUMPDEST PUSH0 PUSH2 0x245 DUP6 DUP3 DUP7 ADD PUSH2 0xD2 JUMP JUMPDEST SWAP3 POP POP PUSH1 0x20 DUP4 ADD MLOAD PUSH8 0xFFFFFFFFFFFFFFFF DUP2 GT ISZERO PUSH2 0x266 JUMPI PUSH2 0x265 PUSH2 0x88 JUMP JUMPDEST JUMPDEST PUSH2 0x272 DUP6 DUP3 DUP7 ADD PUSH2 0x1F5 JUMP JUMPDEST SWAP2 POP POP SWAP3 POP SWAP3 SWAP1 POP JUMP JUMPDEST PUSH0 DUP2 MLOAD SWAP1 POP SWAP2 SWAP1 POP JUMP JUMPDEST PUSH32 0x4E487B7100000000000000000000000000000000000000000000000000000000 PUSH0 MSTORE PUSH1 0x22 PUSH1 0x4 MSTORE PUSH1 0x24 PUSH0 REVERT JUMPDEST PUSH0 PUSH1 0x2 DUP3 DIV SWAP1 POP PUSH1 0x1 DUP3 AND DUP1 PUSH2 0x2CA JUMPI PUSH1 0x7F DUP3 AND SWAP2 POP JUMPDEST PUSH1 0x20 DUP3 LT DUP2 SUB PUSH2 0x2DD JUMPI PUSH2 0x2DC PUSH2 0x286 JUMP JUMPDEST JUMPDEST POP SWAP2 SWAP1 POP JUMP JUMPDEST PUSH0 DUP2 SWAP1 POP DUP2 PUSH0 MSTORE PUSH1 0x20 PUSH0 KECCAK256 SWAP1 POP SWAP2 SWAP1 POP JUMP JUMPDEST PUSH0 PUSH1 0x20 PUSH1 0x1F DUP4 ADD DIV SWAP1 POP SWAP2 SWAP1 POP JUMP JUMPDEST PUSH0 DUP3 DUP3 SHL SWAP1 POP SWAP3 SWAP2 POP POP JUMP JUMPDEST PUSH0 PUSH1 0x8 DUP4 MUL PUSH2 0x33F PUSH32 0xFFFFFFFFFFFFFFFFFFFFFFFFFFFFFFFFFFFFFFFFFFFFFFFFFFFFFFFFFFFFFFFF DUP3 PUSH2 0x304 JUMP JUMPDEST PUSH2 0x349 DUP7 DUP4 PUSH2 0x304 JUMP JUMPDEST SWAP6 POP DUP1 NOT DUP5 AND SWAP4 POP DUP1 DUP7 AND DUP5 OR SWAP3 POP POP POP SWAP4 SWAP3 POP POP POP JUMP JUMPDEST PUSH0 DUP2 SWAP1 POP SWAP2 SWAP1 POP JUMP JUMPDEST PUSH0 DUP2 SWAP1 POP SWAP2 SWAP1 POP JUMP JUMPDEST PUSH0 PUSH2 0x38D PUSH2 0x388 PUSH2 0x383 DUP5 PUSH2 0x361 JUMP JUMPDEST PUSH2 0x36A JUMP JUMPDEST PUSH2 0x361 JUMP JUMPDEST SWAP1 POP SWAP2 SWAP1 POP JUMP JUMPDEST PUSH0 DUP2 SWAP1 POP SWAP2 SWAP1 POP JUMP JUMPDEST PUSH2 0x3A6 DUP4 PUSH2 0x373 JUMP JUMPDEST PUSH2 0x3BA PUSH2 0x3B2 DUP3 PUSH2 0x394 JUMP JUMPDEST DUP5 DUP5 SLOAD PUSH2 0x310 JUMP JUMPDEST DUP3 SSTORE POP POP POP POP JUMP JUMPDEST PUSH0 PUSH0 SWAP1 POP SWAP1 JUMP JUMPDEST PUSH2 0x3D1 PUSH2 0x3C2 JUMP JUMPDEST PUSH2 0x3DC DUP2 DUP5 DUP5 PUSH2 0x39D JUMP JUMPDEST POP POP POP JUMP JUMPDEST JUMPDEST DUP2 DUP2 LT ISZERO PUSH2 0x3FF JUMPI PUSH2 0x3F4 PUSH0 DUP3 PUSH2 0x3C9 JUMP JUMPDEST PUSH1 0x1 DUP2 ADD SWAP1 POP PUSH2 0x3E2 JUMP JUMPDEST POP POP JUMP JUMPDEST PUSH1 0x1F DUP3 GT ISZERO PUSH2 0x444 JUMPI PUSH2 0x415 DUP2 PUSH2 0x2E3 JUMP JUMPDEST PUSH2 0x41E DUP5 PUSH2 0x2F5 JUMP JUMPDEST DUP2 ADD PUSH1 0x20 DUP6 LT ISZERO PUSH2 0x42D JUMPI DUP2 SWAP1 POP JUMPDEST PUSH2 0x441 PUSH2 0x439 DUP6 PUSH2 0x2F5 JUMP JUMPDEST DUP4 ADD DUP3 PUSH2 0x3E1 JUMP JUMPDEST POP POP JUMPDEST POP POP POP JUMP JUMPDEST PUSH0 DUP3 DUP3 SHR SWAP1 POP SWAP3 SWAP2 POP POP JUMP JUMPDEST PUSH0 PUSH2 0x464 PUSH0 NOT DUP5 PUSH1 0x8 MUL PUSH2 0x449 JUMP JUMPDEST NOT DUP1 DUP4 AND SWAP2 POP POP SWAP3 SWAP2 POP POP JUMP JUMPDEST PUSH0 PUSH2 0x47C DUP4 DUP4 PUSH2 0x455 JUMP JUMPDEST SWAP2 POP DUP3 PUSH1 0x2 MUL DUP3 OR SWAP1 POP SWAP3 SWAP2 POP POP JUMP JUMPDEST PUSH2 0x495 DUP3 PUSH2 0x27C JUMP JUMPDEST PUSH8 0xFFFFFFFFFFFFFFFF DUP2 GT ISZERO PUSH2 0x4AE JUMPI PUSH2 0x4AD PUSH2 0xFE JUMP JUMPDEST JUMPDEST PUSH2 0x4B8 DUP3 SLOAD PUSH2 0x2B3 JUMP JUMPDEST PUSH2 0x4C3 DUP3 DUP3 DUP6 PUSH2 0x403 JUMP JUMPDEST PUSH0 PUSH1 0x20 SWAP1 POP PUSH1 0x1F DUP4 GT PUSH1 0x1 DUP2 EQ PUSH2 0x4F4 JUMPI PUSH0 DUP5 ISZERO PUSH2 0x4E2 JUMPI DUP3 DUP8 ADD MLOAD SWAP1 POP JUMPDEST PUSH2 0x4EC DUP6 DUP3 PUSH2 0x471 JUMP JUMPDEST DUP7 SSTORE POP PUSH2 0x553 JUMP JUMPDEST PUSH1 0x1F NOT DUP5 AND PUSH2 0x502 DUP7 PUSH2 0x2E3 JUMP JUMPDEST PUSH0 JUMPDEST DUP3 DUP2 LT ISZERO PUSH2 0x529 JUMPI DUP5 DUP10 ADD MLOAD DUP3 SSTORE PUSH1 0x1 DUP3 ADD SWAP2 POP PUSH1 0x20 DUP6 ADD SWAP5 POP PUSH1 0x20 DUP2 ADD SWAP1 POP PUSH2 0x504 JUMP JUMPDEST DUP7 DUP4 LT ISZERO PUSH2 0x546 JUMPI DUP5 DUP10 ADD MLOAD PUSH2 0x542 PUSH1 0x1F DUP10 AND DUP3 PUSH2 0x455 JUMP JUMPDEST DUP4 SSTORE POP JUMPDEST PUSH1 0x1 PUSH1 0x2 DUP9 MUL ADD DUP9 SSTORE POP POP POP JUMPDEST POP POP POP POP POP POP JUMP JUMPDEST PUSH2 0x323 DUP1 PUSH2 0x568 PUSH0 CODECOPY PUSH0 RETURN INVALID PUSH1 0x80 PUSH1 0x40 MSTORE PUSH1 0x4 CALLDATASIZE LT PUSH2 0x37 JUMPI PUSH0 CALLDATALOAD PUSH1 0xE0 SHR DUP1 PUSH4 0x6FDDE03 EQ PUSH2 0x42 JUMPI DUP1 PUSH4 0x12065FE0 EQ PUSH2 0x6C JUMPI DUP1 PUSH4 0x8DA5CB5B EQ PUSH2 0x96 JUMPI PUSH2 0x3E JUMP JUMPDEST CALLDATASIZE PUSH2 0x3E JUMPI STOP JUMPDEST PUSH0 PUSH0 REVERT JUMPDEST CALLVALUE DUP1 ISZERO PUSH2 0x4D JUMPI PUSH0 PUSH0 REVERT JUMPDEST POP PUSH2 0x56 PUSH2 0xC0 JUMP JUMPDEST PUSH1 0x40 MLOAD PUSH2 0x63 SWAP2 SWAP1 PUSH2 0x1E7 JUMP JUMPDEST PUSH1 0x40 MLOAD DUP1 SWAP2 SUB SWAP1 RETURN JUMPDEST CALLVALUE DUP1 ISZERO PUSH2 0x77 JUMPI PUSH0 PUSH0 REVERT JUMPDEST POP PUSH2 0x80 PUSH2 0x14C JUMP JUMPDEST PUSH1 0x40 MLOAD PUSH2 0x8D SWAP2 SWAP1 PUSH2 0x21F JUMP JUMPDEST PUSH1 0x40 MLOAD DUP1 SWAP2 SUB SWAP1 RETURN JUMPDEST CALLVALUE DUP1 ISZERO PUSH2 0xA1 JUMPI PUSH0 PUSH0 REVERT JUMPDEST POP PUSH2 0xAA PUSH2 0x153 JUMP JUMPDEST PUSH1 0x40 MLOAD PUSH2 0xB7 SWAP2 SWAP1 PUSH2 0x277 JUMP JUMPDEST PUSH1 0x40 MLOAD DUP1 SWAP2 SUB SWAP1 RETURN JUMPDEST PUSH1 0x1 DUP1 SLOAD PUSH2 0xCD SWAP1 PUSH2 0x2BD JUMP JUMPDEST DUP1 PUSH1 0x1F ADD PUSH1 0x20 DUP1 SWAP2 DIV MUL PUSH1 0x20 ADD PUSH1 0x40 MLOAD SWAP1 DUP2 ADD PUSH1 0x40 MSTORE DUP1 SWAP3 SWAP2 SWAP1 DUP2 DUP2 MSTORE PUSH1 0x20 ADD DUP3 DUP1 SLOAD PUSH2 0xF9 SWAP1 PUSH2 0x2BD JUMP JUMPDEST DUP1 ISZERO PUSH2 0x144 JUMPI DUP1 PUSH1 0x1F LT PUSH2 0x11B JUMPI PUSH2 0x100 DUP1 DUP4 SLOAD DIV MUL DUP4 MSTORE SWAP2 PUSH1 0x20 ADD SWAP2 PUSH2 0x144 JUMP JUMPDEST DUP3 ADD SWAP2 SWAP1 PUSH0 MSTORE PUSH1 0x20 PUSH0 KECCAK256 SWAP1 JUMPDEST DUP2 SLOAD DUP2 MSTORE SWAP1 PUSH1 0x1 ADD SWAP1 PUSH1 0x20 ADD DUP1 DUP4 GT PUSH2 0x127 JUMPI DUP3 SWAP1 SUB PUSH1 0x1F AND DUP3 ADD SWAP2 JUMPDEST POP POP POP POP POP DUP2 JUMP JUMPDEST PUSH0 SELFBALANCE SWAP1 POP SWAP1 JUMP JUMPDEST PUSH0 PUSH0 SWAP1 SLOAD SWAP1 PUSH2 0x100 EXP SWAP1 DIV PUSH20 0xFFFFFFFFFFFFFFFFFFFFFFFFFFFFFFFFFFFFFFFF AND DUP2 JUMP JUMPDEST PUSH0 DUP2 MLOAD SWAP1 POP SWAP2 SWAP1 POP JUMP JUMPDEST PUSH0 DUP3 DUP3 MSTORE PUSH1 0x20 DUP3 ADD SWAP1 POP SWAP3 SWAP2 POP POP JUMP JUMPDEST DUP3 DUP2 DUP4 MCOPY PUSH0 DUP4 DUP4 ADD MSTORE POP POP POP JUMP JUMPDEST PUSH0 PUSH1 0x1F NOT PUSH1 0x1F DUP4 ADD AND SWAP1 POP SWAP2 SWAP1 POP JUMP JUMPDEST PUSH0 PUSH2 0x1B9 DUP3 PUSH2 0x177 JUMP JUMPDEST PUSH2 0x1C3 DUP2 DUP6 PUSH2 0x181 JUMP JUMPDEST SWAP4 POP PUSH2 0x1D3 DUP2 DUP6 PUSH1 0x20 DUP7 ADD PUSH2 0x191 JUMP JUMPDEST PUSH2 0x1DC DUP2 PUSH2 0x19F JUMP JUMPDEST DUP5 ADD SWAP2 POP POP SWAP3 SWAP2 POP POP JUMP JUMPDEST PUSH0 PUSH1 0x20 DUP3 ADD SWAP1 POP DUP2 DUP2 SUB PUSH0 DUP4 ADD MSTORE PUSH2 0x1FF DUP2 DUP5 PUSH2 0x1AF JUMP JUMPDEST SWAP1 POP SWAP3 SWAP2 POP POP JUMP JUMPDEST PUSH0 DUP2 SWAP1 POP SWAP2 SWAP1 POP JUMP JUMPDEST PUSH2 0x219 DUP2 PUSH2 0x207 JUMP JUMPDEST DUP3 MSTORE POP POP JUMP JUMPDEST PUSH0 PUSH1 0x20 DUP3 ADD SWAP1 POP PUSH2 0x232 PUSH0 DUP4 ADD DUP5 PUSH2 0x210 JUMP JUMPDEST SWAP3 SWAP2 POP POP JUMP JUMPDEST PUSH0 PUSH20 0xFFFFFFFFFFFFFFFFFFFFFFFFFFFFFFFFFFFFFFFF DUP3 AND SWAP1 POP SWAP2 SWAP1 POP JUMP JUMPDEST PUSH0 PUSH2 0x261 DUP3 PUSH2 0x238 JUMP JUMPDEST SWAP1 POP SWAP2 SWAP1 POP JUMP JUMPDEST PUSH2 0x271 DUP2 PUSH2 0x257 JUMP JUMPDEST DUP3 MSTORE POP POP JUMP JUMPDEST PUSH0 PUSH1 0x20 DUP3 ADD SWAP1 POP PUSH2 0x28A PUSH0 DUP4 ADD DUP5 PUSH2 0x268 JUMP JUMPDEST SWAP3 SWAP2 POP POP JUMP JUMPDEST PUSH32 0x4E487B7100000000000000000000000000000000000000000000000000000000 PUSH0 MSTORE PUSH1 0x22 PUSH1 0x4 MSTORE PUSH1 0x24 PUSH0 REVERT JUMPDEST PUSH0 PUSH1 0x2 DUP3 DIV SWAP1 POP PUSH1 0x1 DUP3 AND DUP1 PUSH2 0x2D4 JUMPI PUSH1 0x7F DUP3 AND SWAP2 POP JUMPDEST PUSH1 0x20 DUP3 LT DUP2 SUB PUSH2 0x2E7 JUMPI PUSH2 0x2E6 PUSH2 0x290 JUMP JUMPDEST JUMPDEST POP SWAP2 SWAP1 POP JUMP INVALID LOG2 PUSH5 0x6970667358 0x22 SLT KECCAK256 0xD7 DUP13 0x4E 0xDA 0xE8 0x4F CALLDATACOPY EXTCODEHASH 0xD5 PUSH19 0x717E2A56557E71A2ACA7774FB4AA9F772CB789 JUMPF 0xC5FA PUSH5 0x736F6C6343 STOP ADDMOD 0x1E STOP CALLER LOG2 PUSH5 0x6970667358 0x22 SLT KECCAK256 PUSH8 0x3549D4910A636A65 DUP9 0x2A ADDMOD MSTORE SWAP2 SWAP1 0xD7 SWAP15 0xA7 RJUMPI 0x7BB5 0xB2 PUSH23 0xF701DBB18E85B9413F64736F6C634300081E0033000000 "
				},
				"gasEstimates": {
					"creation": {
						"codeDepositCost": "825600",
						"executionCost": "855",
						"totalCost": "826455"
					},
					"external": {
						"deployWithCreate(string)": "infinite",
						"deployWithCreate2(string,bytes32)": "infinite",
						"deployedContracts(uint256)": "4943",
						"getDeployedContracts()": "infinite"
					}
				},
				"methodIdentifiers": {
					"deployWithCreate(string)": "1c385d57",
					"deployWithCreate2(string,bytes32)": "c9d47df4",
					"deployedContracts(uint256)": "9ad1ee10",
					"getDeployedContracts()": "aa9a068f"
				}
			},
			"storageLayout": {
				"storage": [
					{
						"astId": 44,
						"contract": "Factory.sol:Factory",
						"label": "deployedContracts",
						"offset": 0,
						"slot": "0",
						"type": "t_array(t_address)dyn_storage"
					}
				],
				"types": {
					"t_address": {
						"encoding": "inplace",
						"label": "address",
						"numberOfBytes": "20"
					},
					"t_array(t_address)dyn_storage": {
						"base": "t_address",
						"encoding": "dynamic_array",
						"label": "address[]",
						"numberOfBytes": "32"
					}
				}
			},
			"userdoc": {
				"kind": "user",
				"methods": {},
				"version": 1
			}
		}
	}
}